:020000040800F2
:10000000C8B3002045010008D9110008D710000826
:10001000D5110008F70200080928000800000000B8
:100020000000000000000000000000004D23000858
:10003000010B0008000000008912000839240008A4
:100040005F0100085F0100085F0100085F01000810
:100050005F0100085F0100085F0100085F01000800
:10006000390B00085F0100085F0100085F0100080C
:100070005F0100085F0100085F0100085F010008E0
:100080005F0100085F0100085F0100085F010008D0
:10009000D12700085F0100085F010008950B0008E8
:1000A0005F0100085F0100085F0100085F010008B0
:1000B0005F0100085F0100085F0100085F010008A0
:1000C0005F0100085F0100085F0100085F01000890
:1000D0005F0100085F0100085F0100085F01000880
:1000E0005F0100085F0100085F0100085F01000870
:1000F0005F0100085F0100085F0100085F01000860
:100100005F010008351700085F0100085F01000863
:100110005F0100085F0100085F0100085F0100083F
:100120005F0100085F0100085F0100085F0100082F
:10013000DFF80CD000F0A2F800480047095600088C
:10014000C8B300200648804706480047FEE7FEE7A0
:10015000FEE7FEE7FEE7FEE7FEE7FEE7FEE7FEE777
:10016000A9240008310100082DE9F05F05460020B0
:1001700092469B4688460646814640241BE0284618
:1001800041464746224600F069F853465A46C01A8F
:10019000914110D311461846224600F050F82D1A0E
:1001A00067EB01084F4622460120002100F047F886
:1001B00017EB00094E41201EA4F10104DFDC484684
:1001C00031462A464346BDE8F09F40EA01039B07BB
:1001D00003D009E008C9121F08C0042AFAD203E0BC
:1001E00011F8013B00F8013B521EF9D27047D2B220
:1001F00001E000F8012B491EFBD270470022F6E710
:1002000010B513460A4604461946FFF7F0FF20468C
:1002100010BD30B50B46014600202022012409E024
:1002200021FA02F59D4205D303FA02F5491B04FAAF
:1002300002F52844151EA2F10102F1DC30BD202A8E
:1002400004DB203A00FA02F1002070479140C2F12D
:10025000200320FA03F3194390407047202A04DB5F
:10026000203A21FA02F00021704721FA02F3D0402F
:10027000C2F120029140084319467047064C074DD1
:1002800006E0E06840F0010394E807009847103466
:10029000AC42F6D3FFF750FFFC1D03081C1E0308F9
:1002A00070B58C1810F8015B15F0070301D110F838
:1002B000013B2A1106D110F8012B03E010F8016B65
:1002C00001F8016B5B1EF9D12B0705D40023521EE8
:1002D0000DD401F8013BFAE710F8013BCB1A921C50
:1002E00003E013F8015B01F8015B521EF9D5A1424E
:1002F000D8D3002070BD00BFFEE7000000B589B074
:100300000121480600F0D2FF2C4800F059F806A859
:1003100000F023FA00208DF81E008DF81F008DF8E4
:10032000200001208DF8210000208DF822008DF89A
:1003300023008DF81A008DF81B0001208DF81C0099
:1003400002208DF81D000C20ADF8180006A91B48EE
:1003500000F001F900208DF812008DF81300012043
:100360008DF814000020ADF80800ADF80A00ADF8D3
:100370000C00ADF80E00ADF8100001208DF815004E
:1003800002A800F039F8012202210C4800F0DAF846
:100390004FF4A06000F06EFF14208DF804000120DF
:1003A0008DF8050003208DF8060001208DF8070068
:1003B00001A800F027FF09B000BD00000064004064
:1003C00010B504460B48844209D10121480600F0CB
:1003D0007DFF00214FF0007000F078FF08E0012160
:1003E000880600F073FF00214FF0806000F06EFF80
:1003F00010BD00000064004010B50021837A012286
:1004000002FA03F13D4A126842F001023B4B1A60C6
:100410003A4A1C3212688A43384B1C331A60027BFA
:10042000CAB9364A0C3212688A43344B0C331A600C
:100430004288C38842EA0343304A4032847A42F811
:1004400034300288838842EA03432C4A4032847A5B
:1004500002EBC4025360027B012A19D1274A0C32F5
:1004600012680A43254B0C331A604288038842EA1B
:100470000343224A4032847A42F83430C288838867
:1004800042EA03431D4A4032847A02EBC4025360BD
:10049000C27A3AB9194A121D12688A43174B1B1DBA
:1004A0001A6006E0154A121D12680A43134B1B1D01
:1004B0001A60028932B9114A143212688A430F4B0A
:1004C00014331A600289012A06D10C4A14321268C8
:1004D0000A430A4B14331A60427B012A06D1074AA9
:1004E0001C3212680A43054B1C331A60034A126817
:1004F00022F00102014B1A6010BD000000660040AE
:1005000008B50121042000F0F1FE4FF48050ADF851
:10051000000003208DF8020018208DF803006946C2
:10052000074800F04BFD4FF40060ADF80000482094
:100530008DF803006946024800F040FD08BD000048
:10054000000801401AB143690B43436102E043696B
:100550008B434361704730B5024600200023146886
:1005600024F002041460146844F00104146000E0F4
:100570005B1C546804F001041CB94FF6FF74A342DD
:10058000F6D1546804F001040CB900206CE08C79B9
:10059000012C04D1146844F08004146003E0146852
:1005A00024F080041460CC79012C04D1146844F048
:1005B0004004146003E0146824F0400414600C7AD2
:1005C000012C04D1146844F02004146003E0146882
:1005D00024F0200414604C7A012C04D1146844F0F7
:1005E0001004146003E0146824F0100414608C7A82
:1005F000012C04D1146844F00804146003E014686A
:1006000024F008041460CC7A012C04D1146844F05E
:100610000404146003E0146824F0040414608C786B
:10062000A407CD7844EA05640D7944EA05444D7980
:1006300044EA05540D886D1E2C43D461146824F0DF
:1006400001041460002300E05B1C546804F0010402
:100650001CB14FF6FF74A342F6D1546804F00104B4
:100660000CB1002000E0012030BD10B500F5D873BA
:1006700003EB01131B6803F004031372137A53B9DD
:1006800000F5D87303EB01131B6840F2FF7404EA12
:100690005353136009E000F5D87303EB01131B6893
:1006A0006FF0604404EAD303536000F5D87303EBA2
:1006B00001131B6803F00203537200F5D87303EBB8
:1006C00001135B6803F00F03937200F5D87303EB1B
:1006D00001135B681B0AD37400F5D87303EB011395
:1006E0009B68D37200F5D87303EB01139B681C0A57
:1006F000147300F5D87303EB01139B681C0C54733F
:1007000000F5D87303EB01139B681B0E937300F580
:10071000D87303EB0113DB68D37300F5D87303EBD5
:100720000113DB681C0A147400F5D87303EB011382
:10073000DB681C0C547400F5D87303EB0113DB6801
:100740001B0E937421B9C36843F02003C36003E018
:10075000036943F02003036110BD00218171C17161
:10076000017241728172C1728170C1700321017185
:100770000221417101210180704702461009087071
:1007800002F00F004870087800281BDB0878092861
:1007900018DC4878002809DB4878092806DC087846
:1007A000303008704878303048700BE048780A28BC
:1007B00008DB48780F2805DC087830300870487866
:1007C0003730487008780A281BDB08780F2818DCB7
:1007D0004878002809DB4878092806DC0878373093
:1007E00008704878303048700BE048780A2808DBF9
:1007F00048780F2805DC087837300870487837309B
:1008000048700878704770B500254FF4803400E0D8
:10081000641E24B1802000F06DFF0028F8D014B9C8
:100820000325284670BD40F2FF5000F01BFF28460C
:10083000F8E70000014600BF0748406B00F04500A4
:100840000028F9D040F2FF50034A906310464069F7
:1008500008221040C0B270470080014070B50025EA
:100860001048446B01E00F48446B04F04500002839
:10087000F9D004F0040028B10325042000F0F2FEB2
:10088000284670BD04F0010028B10125012000F0C8
:10089000E9FE2846F5E740F2FF5000F0E3FE284667
:1008A000EFE700000080014070B500250B48446B65
:1008B00001E00A48446B04F045000028F9D004F038
:1008C000040028B10325042000F0CCFE284670BDAA
:1008D00040F2FF5000F0C6FE2846F8E700800140D5
:1008E0002DE9F04106460F464FF000082248456BBF
:1008F00001E02148456B05F045000028F9D005F0DE
:10090000040038B14FF00308042000F0ABFE40466D
:10091000BDE8F08105F0010030B14FF00108012081
:1009200000F0A0FE4046F3E700F0DEFEB04203D048
:100930004FF010084046EBE740F2FF5000F092FE07
:10094000002000F0EBFE044604F4604018B9200CCF
:1009500038804046DCE704F4005008B11320D7E7A4
:1009600004F4804008B11020D2E704F4004008B13C
:100970000F20CDE74046CBE70080014070B5002650
:100980004FF480350F48446B02E06D1E0D48446BF8
:1009900004F0450008B9002DF7D115B104F00400AA
:1009A00028B10326042000F05DFE304670BD04F03F
:1009B000400028B10026402000F054FE3046F5E704
:1009C0003046F3E70080014000F0805111B1034947
:1009D000086001E0024948607047000004040240DA
:1009E0000000024021B1026842F00102026004E00E
:1009F00002684FF6FE731A400260704701460020FD
:100A0000002201F0805313B1054B1A6801E0054B39
:100A10001A6802EA01030BB1012000E000207047D0
:100A2000000402400000024010B50022026847F6B0
:100A3000F0739A430C6A8B6823430C6923434C6917
:100A400023438C692343CC6923434C6A23438C6A38
:100A500023431A430260CB6843600B6883604B6892
:100A6000C36010BD70B502460B460025144600BF9A
:100A70006D1C0A2094FBF0F4002CF9D1691E0AE0E9
:100A80000A2092FBF0F600FB1620303058540A2062
:100A900092FBF0F2491E0029F2DA187870BD2DE9B8
:100AA000F04103460C464FF0000C1D4600BF0CF110
:100AB000010C0A2095FBF0F5002DF8D1ACF10101F5
:100AC0000AE00A2093FBF0F800FB18303030505455
:100AD0000A2093FBF0F3491E0029F2DA0A2094FB66
:100AE000F0F800FB184694FBF0F76620907007F1D1
:100AF0003000D07006F1300010711078BDE8F08140
:100B00007047000010B504460A490968C1EBC101ED
:100B100004EB81002021FFF771FB06480068401CB0
:100B20004FF4FA71B0FBF1F201FB120001490860C9
:100B300010BD0000F000002010B50E48006808B994
:100B4000012000E000200B4908600846006818B941
:100B5000094804F0C7FC05E0074804F0E5FC07A0DD
:100B600001F054FE4FF4967005F026FF042000F0CB
:100B70004FF810BD040000200001030020202020B9
:100B8000202020202020202020D4DDCDA3D6D0205E
:100B90000A00000010B512480068401C10490860A7
:100BA00008460068012805D10EA001F02FFE174865
:100BB00004F0BAFC0A480068022802D1134804F085
:100BC00091FC07480068032802D10020044908600E
:100BD0004FF4967005F0F0FE202000F019F810BDDB
:100BE00000000020D7BCB1B8BFAACABCB2C9BCAF14
:100BF000CAFDBEDDA3ACC7EBB5E3BBF7B7A2CBCD57
:100C000063616ECAFDBEDD0A000000000002040040
:100C10000149086070470000140401400021234985
:100C20008279002A3AD00A46126803689A430B4632
:100C30001A600A1D126803689A430B1D1A60027934
:100C400011440A6803681A430A60184A0832126895
:100C500003689A43154B08331A601A1D126803681B
:100C60009A43124B0C331A604279102A0ED11A1F84
:100C7000126803681A430D4B08331A601A1D126874
:100C800003681A43094B0C331A600DE00749427997
:100C900011440A6803681A430A6005E002791144A6
:100CA0000A6803689A430A60704700000004014024
:100CB0001FB50121412000F019FB0420ADF80C0004
:100CC00048208DF80F0003A9144800F077F902219D
:100CD000042000F053F90420019000208DF8080052
:100CE0000C208DF8090001208DF80A0001A8FFF7FB
:100CF00095FF4FF4A06000F0BDFA08208DF80000C9
:100D000001208DF8010002208DF8020001208DF8ED
:100D10000300684600F076FA1FBD0000001801408D
:100D20001FB50121412000F0E1FA2020ADF80C00B0
:100D300048208DF80F0003A9144800F03FF9052161
:100D4000042000F01BF92020019000208DF80800FD
:100D50000C208DF8090001208DF80A0001A8FFF78A
:100D60005DFF4FF4A06000F085FA17208DF80000B9
:100D700001208DF8010002208DF8020001208DF87D
:100D80000300684600F03EFA1FBD00000018014055
:100D90002DE9FC4107460D46002600240020009066
:100DA000019008205D49086010204860402088605C
:100DB0000020C8604FF480600861084600F0ECFC39
:100DC0001020FFF737FD044614B12046BDE8FC8132
:100DD000534800880004514908603720486040208B
:100DE00088600020C8604FF480600861084600F009
:100DF000D3FC3720FFF71EFD04460CB12046E5E783
:100E00004FF0FF3047490860082048603020886074
:100E10000220C8600020086101204861084600F0F7
:100E200039FC00203D49086033204860402088603C
:100E30000020C8604FF480600861084600F0ACFCF8
:100E40003320FFF7F7FC04460CB12046BEE70CE068
:100E50004FF4001000F04EFC38B100F097FC4DF854
:100E60002600761C012E00D906E02F48406B40F288
:100E70002A6108400028EBD000BF082000F03AFCAF
:100E800028B1082000F0EEFB042420469EE7022053
:100E900000F030FC28B1022000F0E4FB02242046E0
:100EA00094E7202000F026FC28B1202000F0DAFB97
:100EB000062420468AE74FF4007000F01BFC30B196
:100EC0004FF4007000F0CEFB072420467EE740F28E
:100ED000FF5000F0C7FB00980006009901F47F4125
:100EE00040EA0120009901F47F0140EA11200099B5
:100EF00040EA1160686001980006019901F47F41A1
:100F000040EA0120019901F47F0140EA1120019992
:100F100040EA11602860204658E7000098AF0020A2
:100F2000FC000020ACAF00200080014008B501218A
:100F3000302000F0DBF94FF4F850ADF8000003204A
:100F40008DF8020018208DF803006946094800F06A
:100F500035F80420ADF800006946074800F02EF887
:100F60000121880200F092F90121022000F08EF99F
:100F700008BD0000001001400014014030B50022FF
:100F80008B071C0F0F2303FA04F20B4B8C1053F842
:100F900024309343084C8D1044F8253023468C10A0
:100FA00053F824308C07240F00FA04F42343024C36
:100FB0008D1044F8253030BD080001402DE9F04186
:100FC000024600250026002000230024002791F877
:100FD00003C00CF00F0591F803C00CF0100CBCF12D
:100FE000000F03D091F802C04CEA050591F800C04B
:100FF000BCF1000F31D0146800202BE04FF0010C41
:101000000CFA00F3B1F800C00CEA03069E4220D1AE
:1010100083004FF00F0C0CFA03F7BC4305FA03FCF6
:101020004CEA040491F803C0BCF1280F06D14FF03C
:10103000010C0CFA00FCC2F814C00AE091F803C0DD
:10104000BCF1480F05D14FF0010C0CFA00FCC2F8BE
:1010500010C0401C0828D1D31460B1F800C0BCF106
:10106000FF0F34DD546800202EE000F1080C4FF033
:10107000010808FA0CF3B1F800C00CEA03069E421E
:1010800021D183004FF00F0C0CFA03F7BC4305FA93
:1010900003FC4CEA040491F803C0BCF1280F05D10D
:1010A00000F1080C08FA0CF8C2F8148091F803C09B
:1010B000BCF1480F07D100F1080C4FF0010808FA05
:1010C0000CF8C2F81080401C0828CED35460BDE84C
:1010D000F0810161704700BFFEE700000FB410B55A
:1010E00004461C490968C1EBC10104EB81001C22C4
:1010F00003A9FFF76AF81848006816490968C1EBA8
:10110000C101164A02EB8101886115480068114946
:101110000968C1EBC10102EB810148610E4800681A
:10112000401C0D4908600846006844F2506188423E
:1011300002DD01200849086006480068401C4FF4A1
:10114000FA71B0FBF1F201FB12000249086010BC19
:101150005DF814FBF40000201800002084770020C4
:101160000C00002008B501214FF4867000F0BEF895
:101170004020ADF8000010208DF8030003208DF80A
:10118000020069461048FFF719FF4FF48070ADF870
:10119000000069460D48FFF711FF4FF48070ADF86D
:1011A000000069460A48FFF709FF40210648FFF79B
:1011B00090FF4FF480710548FFF78BFF4FF480716B
:1011C0000348FFF786FF08BD0020014000080140EA
:1011D000000C014000BFFEE7704708B54FF4C06047
:1011E00000F048F831208DF8000000208DF8010053
:1011F0008DF8020001208DF80300684600F002F827
:1012000008BD000070B5002100230F22C47804B38C
:10121000154C246804F4E064C4F5E064210AC1F1CB
:101220000403CA40447804FA03F18478144021434B
:1012300009010E4C0678A155047804F01F0501241D
:10124000AC4005786D11AD0005F1E025C5F8004111
:1012500009E0047804F01F050124AC40044D067831
:10126000761145F8264070BD0CED00E000E400E08A
:1012700080E100E002490143024A1160704700002A
:101280000000FA050CED00E07047000029B1064AA5
:1012900052690243044B5A6104E0034A5269824393
:1012A000014B5A61704700000010024029B1064A04
:1012B000D2690243044BDA6104E0034AD2698243F3
:1012C000014BDA61704700000010024029B1064A64
:1012D00012690243044B1A6104E0034A1269824313
:1012E000014B1A61704700000010024029B1064A04
:1012F00092690243044B9A6104E0034A9269824373
:10130000014B9A61704700000010024029B1064A63
:10131000D2680243044BDA6004E0034AD268824395
:10132000014BDA60704700000010024030B5002128
:101330000022002400232D4D6D6805F00C0121B121
:10134000042905D0082923D105E0294D056022E0B4
:10135000274D05601FE0254D6D6805F47012234D83
:101360006D6805F48034022505EB92421CB9214DCD
:10137000554305600BE01D4D6D6805F400351DB14A
:101380001C4D5543056002E0194D5543056002E0D0
:10139000174D056000BF00BF144D6D6805F0F001EA
:1013A0000909154D6B5C0568DD4045600F4D6D68A2
:1013B00005F4E061090A104D6B5C4568DD4085600D
:1013C0000A4D6D6805F46051C90A0B4D6B5C4568A8
:1013D000DD40C560054D6D6805F44041890B074D42
:1013E0006B5CC568B5FBF3F5056130BD00100240CC
:1013F00000127A0000093D0016010020260100209D
:10140000002103480188001F008841EA004070471E
:101410001C28004070B5002600250024FFF7F0FFCF
:1014200006464548B6FBF0F444480088A0425FD029
:1014300042490C8040F2B2751EE0E91705EB91714C
:101440008910A5EB810129B9642195FBF1F201FB1B
:10145000125131B94FF4C87195FBF1F201FB1251F1
:1014600031B9B4F5B77F02D3A4F5B77402E006E052
:10147000A4F26D14681C85B2B4F5B67FDDD800BF48
:101480002F48058000252BE02D490888C11700EB67
:1014900091718910A0EB810139B929490988642229
:1014A00091FBF2F302FB131141B9254909884FF46E
:1014B000C87291FBF2F302FB131131B9012D04D173
:1014C0001D2C01D31D3C09E00CE01E48405DA042EC
:1014D00003D81C48405D241A00E003E0681C85B274
:1014E0001C2CD1D200BF681C15498870601CC870C4
:1014F0001148B6FBF0F100FB11644FF46160B4FBDE
:10150000F0F00F4908714FF46160B4FBF0F100FB9B
:1015100011403C21B0FBF1F0094948714FF4616082
:10152000B4FBF0F100FB11403C21B0FBF1F201FBF8
:1015300012000349887170BD805101001401002020
:101540000C010020606C00087CB5054600240020DA
:101550000090019000F0E2F800F0007010B10E244D
:1015600020467CBD3D49098888B26946FFF710FCDA
:1015700004460CB12046F4E7012D36D1019800F461
:10158000802000282ED035480088000434490860A7
:1015900037204860402088600020C860A8020861A9
:1015A000084600F0F9F83720FFF744F904460CB17B
:1015B0002046D6E702202A490860062048604020DD
:1015C00088600020C8604FF480600861084600F021
:1015D000E3F80620FFF72EF904460CB12046C0E7D9
:1015E0002046BEE725242046BBE7019800F4803062
:1015F00078B31A4800880004194908603720486009
:10160000402088600020C8604FF480600861084670
:1016100000F0C2F83720FFF70DF904460CB1204660
:101620009FE700200E49086006204860402088603F
:101630000020C8604FF480600861084600F0ACF8F4
:101640000620FFF7F7F804460CB1204689E720464C
:1016500087E7FFE72524204683E70000FC00002001
:1016600098AF002001498863704700000080014066
:10167000014988637047000000800140014908600B
:1016800070470000A0003042014908607047000028
:101690008C05304200210A4B02685A6242689A6205
:1016A0001A46D16A21F0F701D0E902231A430369EF
:1016B0001A4343691A431143014AD162704700003B
:1016C0000080014000200649086048608860C860CA
:1016D00048628862C862034888630020C863704714
:1016E00000800140FF07C00001480069C0B2704798
:1016F0000080014001460020034A526B0A400AB1B3
:10170000012000E00020704700800140024800688E
:1017100000F00300704700000080014008B501465A
:10172000002000900248084400900098006808BD1E
:101730001480014010B500F047FC10BD29B1064AE5
:10174000D26B0243044BDA6304E0034AD26B824358
:10175000014BDA63704700000080014000210A4A13
:10176000516847F6FF629143027D83681A434368DC
:101770001A43C3681A4303681A4303691A4311439F
:10178000014A516070470000008001400148006834
:1017900070470000808001400021094B02689A6078
:1017A0001A46D1686FF30A01D0E901231A43C368CE
:1017B0001A4303691A431143014AD160704700007C
:1017C000008001400549096821F00301034A1160C6
:1017D0001146096801431160704700000080014014
:1017E00010B50248FFF70AF910BD000000200010F4
:1017F00030B58BB005460C461348FFF7E5F80021DD
:101800001248FFF7EFF8124800900195002002906F
:10181000A00803900020049080200590800006908E
:1018200080000790002008904FF40050099000209D
:101830000A9069460548FFF7F7F801210348FFF7CA
:10184000D1F80BB030BD000000F00010440402409D
:101850008080014030B58BB005460C461348FFF739
:10186000B3F800211248FFF7BDF812480090019527
:1018700010200290A0080390002004908020059082
:101880008000069080000790002008904FF40050E0
:10189000099000200A9069460548FFF7C5F8012124
:1018A0000348FFF79FF80BB030BD000000F00010B8
:1018B000440402408080014070B504460025214860
:1018C0000068032802D12725284670BD1D480068FE
:1018D00038B11C480068012803D01A480068022863
:1018E0002ED1B4F5805F02D127252846EDE7B4F567
:1018F000006F14D10120FFF727FE054605BB01202C
:101900001149087500200860486088604FF4006045
:10191000C860002008610846FFF720FF10E00020A3
:10192000FFF712FE05465DB9012007490875002042
:10193000086048608860C86008610846FFF70EFFCD
:101940002846C2E7F800002080AF0020F0B501462D
:1019500000200022BC4B1B7881F85630BB4B1B8803
:10196000A1F85430BA4B1B681A0E93090B70C2F3DE
:1019700083034B7002F003038B70B54B1B68C3F3FA
:101980000742CA70B24B1B88C3F307220A71B04BDF
:101990001A784A715B681A0E1301CB80AC4B5B68F6
:1019A000C3F30742CB8843EA1213CB8002F00F0344
:1019B0000B72A74B9B88C3F30722D3094B72C2F368
:1019C00080138B72C2F34013CB72C2F300130B73FC
:1019D00000234B739C4B1B681BB19B4B1B68012B5B
:1019E0004FD193071B0D0B61994B1A790B6943EA91
:1019F00082030B61964B9B681A0E0B6943EA9213A4
:101A00000B61C2F3C2030B7502F007034B75904BD9
:101A10009B68C3F3074253098B75C2F38203CB75EE
:101A200093075B0F0B768A4B1B89C3F307220B7E50
:101A300043EAD2130B760B695B1C0024C1E9123414
:101A40000B7ED1E912649B1C012505FA03F3DF1715
:101A5000A6FB035C04FB03C306FB0733C1E9125377
:101A60000C7A0123A3400B650027D1E912560B6DB8
:101A7000A5FB034C06FB03C305FB0733C1E9124377
:101A80002DE0714B1B68022B29D1714B1A799306FB
:101A90009B0A0B616E4B9B681A0E0B6943EA02238B
:101AA0000B616B4B9B68C3F307420B6913430B61DC
:101AB000674B1B89C3F307220B695B1C4FF400744F
:101AC000A3FB04344FF480660025A3FB067C04FBD3
:101AD00006C403FB0543C1E9127373100B65C2F31F
:101AE000801301F8193F93065B0E4B70584B1A7A1E
:101AF0004B7843EAD2134B7002F07F038B70544B48
:101B0000DB681A0ED309CB70C2F341130B71C2F319
:101B100082034B7193071B0F8B714D4BDB68C3F333
:101B200007428B7943EA92138B71C2F34013CB7156
:101B300000230B7202F001034B72454B9B89C3F3E8
:101B40000722D3098B72C2F38013CB72C2F3401306
:101B50000B73C2F300134B73C2F381038B7302F058
:101B60000303CB733A4B1A7B53080B7401234B745A
:101B7000384B1B681A0ECA741939364B1B68C3F3ED
:101B800007421402CC85334B1B88C3F30722CB8D4D
:101B90001343CB852F4B1A7814060C635B681A0E1F
:101BA0000B6B43EA02440C632A4B5B68C3F30742A6
:101BB0000B6B43EA02240C63264B9B88C3F307227A
:101BC0000B6B13430B63234B1A7934235A54214B69
:101BD0009B681A0E35235A541E4B9B68C3F3074269
:101BE00014068C631B4B1B89C3F307228B6B43EAE0
:101BF00002448C63174B1A7A8B6B43EA02248C6382
:101C0000144BDB681A0E8B6B13438B63114BDB6831
:101C1000C3F307423C235B5C43EA12143C235C544D
:101C200013071C0DCC870B4B9B89C3F30722CB8F6B
:101C30001343CB87074B1A7B540840235C54012481
:101C400041235C54F0BD0000F8000020FC0000209F
:101C5000F8AE002008AF002008B5002000906846CC
:101C600000F074FA08B1FF2008BD0098C0F34320CB
:101C7000FAE710B50424FFF7EFFF0446042C01D166
:101C8000002010BDFF2C01D10220FAE70120F8E767
:101C900010B50024FFF7A1FAFFF748F9FFF712FD8E
:101CA00000F0CEF804460CB1204610BD00F02AF832
:101CB00004460CB12046F8E70120104908750020C1
:101CC000086048608860C86008610846FFF746FD04
:101CD0001CB90B48FFF73AFE044634B90849B1F87D
:101CE0005410080400F018FA044624B94FF40060B8
:101CF000FFF7E2FD04462046D7E7000080AF002052
:101D000028AF002038B5002401200090FFF7FEFC2A
:101D100010B92524204638BD44480068042828D03E
:101D200000204349086002204860C02088600020ED
:101D3000C8604FF4806008610846FFF72DFDFEF78C
:101D40008DFD04460CB12046E5E70020FFF7E6FCD8
:101D5000384908600420FFF7E1FC36494860082054
:101D6000FFF7DCFC334988600C20FFF7D7FC3149D2
:101D7000C8602E48006858B12C480068012807D078
:101D80002A480068062803D028480068022816D18F
:101D90000020274908600320486040208860002018
:101DA000C8604FF4806008610846FFF7F5FC69469B
:101DB0000320FEF795FD04460CB12046ABE71B4817
:101DC000006804282ED0BDF800001B490860BDF84B
:101DD000000000041649086009204860C02088609F
:101DE0000020C8604FF4806008610846FFF7D4FC0B
:101DF000FEF734FD04460CB120468CE70020FFF7C7
:101E00008DFC0E4908600420FFF788FC0B494860F0
:101E10000820FFF783FC094988600C20FFF77EFC4F
:101E20000649C8600024204675E70000F80000203D
:101E300098AF002008AF0020FC000020F8AE002082
:101E40002DE9F0410024002600250027A046B220FD
:101E5000594908750020086048608860C8600861BA
:101E60000846FFF77BFC0320FFF7ACFC0120FFF7DF
:101E700005FC00205149086048608860C8604FF444
:101E8000806008610846FFF787FCFEF7BCFC04464B
:101E900014B12046BDE8F0814FF4D5704749086081
:101EA00008204860402088600020C8604FF48060AF
:101EB00008610846FFF770FCFEF760FD04462CB988
:101EC00001203F4908604FF0804812E000203B4964
:101ED000086037204860402088600020C8604FF4C8
:101EE000806008610846FFF757FC3720FEF7A2FC28
:101EF000044600203149086037204860402088604F
:101F00000020C8604FF4806008610846FFF744FC79
:101F10003720FEF78FFC0446002C4AD136E0002023
:101F20002649086037204860402088600020C8604B
:101F30004FF4806008610846FFF72EFC3720FEF75B
:101F400079FC04460CB12046A4E71E4848EA00008C
:101F50001A49086029204860402088600020C86035
:101F60004FF4806008610846FFF716FCFEF79CFC02
:101F700004460CB120468DE70020FFF7CFFB064654
:101F8000012080EAD67080F001076D1C1FB94FF662
:101F9000FF708542C3D34FF6FF70854202D31B24E6
:101FA000204677E706F08040061E02D00220044952
:101FB000086020466EE7000080AF002098AF002048
:101FC000F80000200000108010B5114800680128BA
:101FD0000BD100200F49886040F24C40C8600C20B3
:101FE000FEF728FC0C49087002E000200A4908703E
:101FF0004FF48070FFF73CFB00214FF48070FFF737
:102000009DFB0120054908600348007810BD0000D1
:102010000001002000800140040100200801002090
:102020002DE9F047814614461D46DDE90868002782
:1020300000203249087032490860012031490860A7
:1020400000203149C86231480068022808D10602E0
:102050000202002320462946FEF786F804460D4674
:102060002B48066010202A494860402088600020E4
:10207000C8604FF4806008610846FFF78DFB1020B0
:10208000FEF7D8FB074617B13846BDE8F0874FF09A
:10209000FF302049086008FB06F048609020886007
:1020A0000220C86000200861012048610846FFF74F
:1020B000F1FA1748046012201549486040208860F2
:1020C0000020C8604FF4806008610846FFF764FB99
:1020D0001220FEF7AFFB07460FB13846D5E70121C6
:1020E0000802FFF72BFB0120FFF7CEFA08FB06F1F1
:1020F0004846FFF77DFB3846C7E700000401002093
:10210000080100200001002000800140F8000020AC
:1021100098AF0020ACAF002070B5044600250A48F7
:102120000460072008494860402088600020C8609B
:102130004FF4806008610846FFF72EFB0720FEF78A
:1021400079FB0546284670BD98AF002070B504465F
:1021500000250A48008800040949886040F24D4083
:10216000C8600D20FEF766FB05460DB1284670BD20
:102170000348406920602846F9E70000FC00002081
:102180000080014010B5002400BFFFF729FB30B9E3
:102190000748006818B9074800780028F5D00548B6
:1021A000007810B10348007810BD2046FCE700001D
:1021B000080100200401002010B5002400BFFFF733
:1021C0000FFB30B90948006818B9094800780028A1
:1021D000F5D00748007810B10548007810BD40F2EE
:1021E000FF50FFF73FFA2046F8E700000801002003
:1021F000040100202DE9F843814615461E46DDE91D
:102200000878002400200090484908704849086078
:1022100001204849086000204749C86247480068D3
:10222000022808D107020202002328463146FDF7A2
:102230009BFF05460E464248076010204049486013
:10224000402088600020C8604FF480600861084624
:10225000FFF7A2FA1020FEF7EDFA044614B120466B
:10226000BDE8F88337480088000435490860372006
:102270004860402088600020C8604FF4806008619A
:102280000846FFF789FA3720FEF7D4FA04460CB166
:102290002046E5E72A48C0F8008017202849486012
:1022A000402088600020C8604FF4806008610846C4
:1022B000FFF772FA1720FEF7BDFA04460CB120466C
:1022C000CEE71F48056019201D49486040208860FE
:1022D0000020C8604FF4806008610846FFF75CFA90
:1022E0001920FEF7A7FA04460CB12046B8E74FF0D4
:1022F000FF301549086008FB07F0486090208860AF
:102300000020C8600861012048610846FFF7C2F953
:1023100001210802FFF712FA0120FFF7B5F908FBC7
:1023200007F14846FFF796FA204699E70401002096
:10233000080100200001002000800140F80000207A
:1023400098AF0020FC000020ACAF0020704710B513
:1023500000F002F810BD00000CB5002001900090C4
:102360003348006840F480303149086000BF30488D
:10237000006800F4003000900198401C0190009823
:1023800018B90198B0F5A06FF1D12948006800F4A0
:10239000003010B10120009001E000200090009872
:1023A000012843D12348006840F01000214908600B
:1023B0000846006820F0030008600846006840F006
:1023C000020008601A484068194948600846406899
:1023D00048600846406840F48060486008464068AD
:1023E00020F47C1048600846406840F4E8104860DB
:1023F0000846006840F08070086000BF0C48006824
:1024000000F000700028F9D00948406820F003006F
:10241000074948600846406840F00200486000BF35
:102420000348406800F00C000828F9D10CBD0000FA
:10243000001002400020024005480068401C642152
:1024400090FBF1F201FB12000149086070470000A7
:102450000C00002030B51149481EB0F1807F00D338
:102460001BE0481E4FF0E022506150170F22002859
:1024700004DB13071C0E0A4B1C5406E013071D0E49
:10248000084B00F00F04241F1D5500BF00204FF023
:10249000E02290610720106100BF30BD40190100AB
:1024A00000E400E018ED00E010B51348006840F0CB
:1024B00001001149086008464068104908400E496B
:1024C0004860084600680E4908400B490860084605
:1024D000006820F4802008600846406820F4FE0070
:1024E00048604FF41F008860FFF731FF4FF0006035
:1024F0000449086010BD0000001002400000FFF811
:10250000FFFFF6FE08ED00E010B502460020108A3D
:102510004FF2FF0318400B884C8823438C882343D9
:10252000CC8823431843108210BD21B1828942F424
:102530000052828104E082894DF6FF731A40828145
:102540007047000000B587B001210420FEF7CEFEE1
:1025500001218803FEF7CAFE4FF40070ADF81800A1
:1025600018208DF81B0003208DF81A0006A91E48BC
:10257000FEF724FD4FF48060ADF8180004208DF8BC
:102580001B0006A91848FEF719FD184800F030F89E
:102590004FF4E13002900020ADF80C00ADF80E00D1
:1025A000ADF81000ADF814000C20ADF8120002A92F
:1025B0000E4800F09DF80020ADF80000ADF80200D4
:1025C000ADF80400ADF8060069460848FFF79CFF27
:1025D000012240F22551054800F065F80121034829
:1025E000FFF7A3FF07B000BD00080140003801401D
:1025F00010B504462048844209D101218803FEF722
:1026000085FE00214FF48040FEF780FE32E01B483B
:10261000844209D101214804FEF758FE00214FF4FD
:102620000030FEF753FE25E01548844209D1012110
:102630008804FEF74BFE00214FF48020FEF746FE93
:1026400018E01048844209D10121C804FEF73EFE7B
:1026500000214FF40020FEF739FE0BE00A488442C7
:1026600008D101210805FEF731FE00214FF480104A
:10267000FEF72CFE10BD0000003801400044004071
:1026800000480040004C004000500040024600203E
:10269000B1F5007F00D100BF13880B400BB10120C2
:1026A00000E000207047F0B5034600240026002516
:1026B000002040F66A17B94200D100BF1846C1F3A6
:1026C000421401F01F06012707FA06F5012C01D17B
:1026D0000C3004E0022C01D1103000E014301AB1AB
:1026E00007682F43076002E00768AF430760F0BD4B
:1026F0002DE9F04786B005460E460024A24600BFED
:10270000A1460027B08900B100BF2F462C8A4CF6A5
:10271000FF700440F08804432C82AC894EF6F3101D
:102720000440B08831890843718908430443AC816F
:10273000AC8A4FF6FF400440B0890443AC8201A844
:10274000FEF7F4FD1F48874202D1DDF810A001E03A
:10275000DDF80CA0A88900F4004040B10AEBCA00E3
:1027600000EB0A1031684900B0FBF1F807E00AEB12
:10277000CA0000EB0A1031688900B0FBF1F8642050
:10278000B8FBF0F004012009642101FB1089A8893D
:1027900000F4004040B1322000EBC900B0FBF1F082
:1027A00000F00700044308E0322000EB0910642128
:1027B000B0FBF1F000F00F0004432C8106B0BDE83F
:1027C000F087000000380140C1F3080282807047A2
:1027D0001FB5094A00210948FDF747FF064B0C3396
:1027E0000FCB8DE80F0004480EC80548FEF776FCB5
:1027F0000120044908601FBD84720020006400406D
:10280000847700200800002000BFFEE70FB4054BCE
:1028100010B503A9044A029800F018F810BC5DF83E
:1028200014FB0000415200083801002002E008C8F3
:10283000121F08C1002AFAD170477047002001E03A
:1028400001C1121F002AFBD1704700002DE9FF4F84
:102850008BB09A460F460546002606E025280BD089
:1028600052460D9990476D1C761C28780028F5D1AA
:102870000FB03046BDE8F08F0024A0460122604929
:1028800000E0044315F8013F203B02FA03F0084240
:10289000F7D128782E2817D115F8010F44F0040439
:1028A0002A280ED06FF02F022878A0F130010929D4
:1028B0000AD808EB880102EB410100EB01086D1C0E
:1028C000F2E757F8048B6D1C287869283ED006DCA7
:1028D0000028CDD063280BD0642804D136E07328BB
:1028E00010D075284BD052460D999047761C85E044
:1028F00017F8040B8DF8000000208DF80100E94660
:10290000012003E057F8049B4FF0FF3061074FF0C0
:10291000000401D40AE0641C44450DDA8442FADB69
:1029200019F804100029F6D106E0641C8442FCDB8F
:1029300019F804100029F8D1264404E019F8010B15
:1029400052460D999047641EF8D257E001CF4FF0E0
:102950000A0B002802DA40422D2102E0210504D5AD
:102960002B218DF82410012103E0E10705D020215F
:10297000F7E70DF1200908910CE00021F9E701CFFC
:102980004FF00A0BF9E75946FDF743FC01F130021D
:1029900009F8012D0028F6D1ADEB090000F1200B5C
:1029A000600701D44FF00108D84502DDA8EB0B0009
:1029B00000E000208046002406E009A85246005DA1
:1029C0000D999047641C761C08988442F5DB04E05E
:1029D000302052460D999047761CB8F10001A8F1BD
:1029E0000108F5DC05E019F8010B52460D999047F6
:1029F000761CBBF10001ABF1010BF4DC6D1C34E77C
:102A00000928010010B5384B05223849384802F032
:102A100031F838490870344B02223749344802F003
:102A200029F834490870304B05223449304802F007
:102A300021F8304908702C4B02222F492C4802F013
:102A400019F82C490870284B07222D49284802F014
:102A500011F828490870244B02222749244802F023
:102A600009F824490870204B09222649204802F021
:102A700001F8204908701C4B02221F491C4801F034
:102A8000F9FF1C490870184B07221F49184801F02C
:102A9000F1FF18490870144B02221749144801F03D
:102AA000E9FF14490870104B08221849104801F03A
:102AB000E1FF104908700C4B02220F490C4801F04D
:102AC000D9FF0C490870084B08221149084801F049
:102AD000D1FF08490870044B03220E49044801F055
:102AE000C9FF0449087010BD58000020B300002041
:102AF000781100205000002096000020B80000202F
:102B0000BD000020D2000020DB000020A300002038
:102B1000AB0000208700002010B5384B0522384953
:102B2000384801F0A7FF38490870344B0222374972
:102B3000344801F09FFF34490870304B0522344976
:102B4000304801F097FF304908702C4B02222F4982
:102B50002C4801F08FFF2C490870284B07222D4983
:102B6000284801F087FF28490870244B0222274992
:102B7000244801F07FFF24490870204B0922264990
:102B8000204801F077FF204908701C4B02221F49A2
:102B90001C4801F06FFF1C490870184B07221F49A1
:102BA000184801F067FF18490870144B02221749B2
:102BB000144801F05FFF14490870104B08221849AF
:102BC000104801F057FF104908700C4B02220F49C2
:102BD0000C4801F04FFF0C490870084B08221149BE
:102BE000084801F047FF08490870044B03220E49CA
:102BF000044801F03FFF0449087010BD5C0000204C
:102C0000B30000209C2100205100002096000020ED
:102C1000B8000020BD000020D2000020DB00002012
:102C2000A3000020AB0000208700002010B5384B27
:102C300005223849384801F01DFF38490870344BE7
:102C400002223749344801F015FF34490870304BEF
:102C500005223449304801F00DFF304908702C4BF3
:102C600002222F492C4801F005FF2C490870284BFF
:102C700007222D49284801F0FDFE28490870244B01
:102C800002222749244801F0F5FE24490870204B10
:102C900009222649204801F0EDFE204908701C4B0E
:102CA00002221F491C4801F0E5FE1C490870184B20
:102CB00007221F49184801F0DDFE18490870144B1F
:102CC00002221749144801F0D5FE14490870104B30
:102CD00008221849104801F0CDFE104908700C4B2D
:102CE00002220F490C4801F0C5FE0C490870084B40
:102CF00008221149084801F0BDFE08490870044B3C
:102D000003220E49044801F0B5FE0449087010BDC5
:102D100060000020B3000020C031002052000020DD
:102D200096000020B8000020BD000020D200002046
:102D3000DB000020A3000020AB0000208700002063
:102D400010B5384B05223849384801F093FE384910
:102D50000870344B02223749344801F08BFE344965
:102D60000870304B05223449304801F083FE304969
:102D700008702C4B02222F492C4801F07BFE2C4975
:102D80000870284B07222D49284801F073FE284976
:102D90000870244B02222749244801F06BFE244985
:102DA0000870204B09222649204801F063FE204983
:102DB00008701C4B02221F491C4801F05BFE1C4995
:102DC0000870184B07221F49184801F053FE184994
:102DD0000870144B02221749144801F04BFE1449A5
:102DE0000870104B08221849104801F043FE1049A2
:102DF00008700C4B02220F490C4801F03BFE0C49B5
:102E00000870084B08221149084801F033FE0849B0
:102E10000870044B03220E49044801F02BFE0449BC
:102E2000087010BD64000020B3000020E4410020C1
:102E30005300002096000020B8000020BD000020B4
:102E4000D2000020DB000020A3000020AB00002007
:102E50008700002010B5384B05223849384801F06A
:102E600009FE38490870344B02223749344801F0D2
:102E700001FE34490870304B05223449304801F0D6
:102E8000F9FD304908702C4B02222F492C4801F0E3
:102E9000F1FD2C490870284B07222D49284801F0E4
:102EA000E9FD28490870244B02222749244801F0F3
:102EB000E1FD24490870204B09222649204801F0F1
:102EC000D9FD204908701C4B02221F491C4801F003
:102ED000D1FD1C490870184B07221F49184801F002
:102EE000C9FD18490870144B02221749144801F013
:102EF000C1FD14490870104B08221849104801F010
:102F0000B9FD104908700C4B02220F490C4801F022
:102F1000B1FD0C490870084B08221149084801F01E
:102F2000A9FD08490870044B03220E49044801F02A
:102F3000A1FD0449087010BD68000020B300002006
:102F4000085200205400002096000020B800002005
:102F5000BD000020D2000020DB000020A3000020E4
:102F6000AB0000208700002010B5384B05223849FF
:102F7000384801F07FFD38490870344B0222374948
:102F8000344801F077FD34490870304B052234494C
:102F9000304801F06FFD304908702C4B02222F4958
:102FA0002C4801F067FD2C490870284B07222D4959
:102FB000284801F05FFD28490870244B0222274968
:102FC000244801F057FD24490870204B0922264966
:102FD000204801F04FFD204908701C4B02221F4978
:102FE0001C4801F047FD1C490870184B07221F4977
:102FF000184801F03FFD18490870144B0222174988
:10300000144801F037FD14490870104B0822184984
:10301000104801F02FFD104908700C4B02220F4997
:103020000C4801F027FD0C490870084B0822114993
:10303000084801F01FFD08490870044B03220E499F
:10304000044801F017FD0449087010BD6C00002011
:10305000B30000202C6200205500002096000020C4
:10306000B8000020BD000020D2000020DB000020BE
:10307000A3000020AB0000208700002010B54B48C3
:103080000068C0EBC0004A4901EB8000807A303014
:10309000484908700A214848FDF7B0F843490968D3
:1030A000C1EBC101424A02EB810148694249FDF787
:1030B000D9FC3E480068C0EBC0003D4901EB8000F0
:1030C000007A20B93D49086803F08AFD03E03B49D6
:1030D000486803F085FD35490968C1EBC101344AF0
:1030E00002EB810188693649FDF7BCFC4FF0FF30E7
:1030F000344908603AE034480068082802D10020CA
:103100003149086029490968C1EBC101284A02EB2D
:1031100081010B312C4A1268885C2C49FDF72DFB8C
:103120002A49087027480068401C40B128480178A7
:1031300024480068401C234A1060264A1154234842
:10314000017820480068401C1E4A1060214A115432
:103150001E4841781B480068401C1A4A10601D4AEE
:10316000115419480068401C174908601548006848
:103170001428C0DB18480068401C1749086000206C
:10318000164908600BE00C48144A1268815C14A0D0
:10319000FFF73CFB11480068401C104908600F48CD
:1031A0000068104909688842EDDB10BDF00000207E
:1031B00084770020A20000208C0000208472002070
:1031C000980000203C000020400000203400002037
:1031D0008A00002070000020380000201400002029
:1031E000256300001000002070B504460D46002045
:1031F0002071401EE0622946204603F059FA08B1CA
:10320000032070BD94F82E1294F82F0241EA00209A
:103210004AF65521884201D00220F2E794F869006D
:10322000010694F8680041EA004194F8670041EA19
:10323000002094F86610084320F07F400D49884232
:1032400001D10020DDE794F88500010694F88400A0
:1032500041EA004194F8830041EA002094F882108A
:10326000084320F07F400349884201D10020C8E78D
:103270000120C6E746415400024600E0521C107887
:1032800010B110788842F9D1107870470246891E33
:103290005069801E884201D8002070479378906A58
:1032A00001FB0300F9E700002DE9F04780460C46DA
:1032B000A17EE07E41EA002010B10020BDE8F08749
:1032C000207800F03F00401E00EB800101EBC006BB
:1032D0004FF00109002524E01A48405D205C19499F
:1032E000495D2144497840EA0127B9F1000F11D026
:1032F000FF2E0BD2384601F001FD82463146761C86
:1033000038F8110001F0FAFC824501D00020D5E721
:10331000B94605E04FF6FF70874201D00020CDE7A7
:103320006D1C0D2DD8D3207800F0400038B1B9F1D4
:10333000000F04D038F8160008B10020BEE70120C5
:10334000BCE700006C6C00082DE9F0470446894694
:10335000B9F1000F06D1E76817B16069B84215D816
:10336000012713E04946204601F0E2FF0646022EFF
:1033700002D20120BDE8F087701C08B93046F9E799
:103380006069B04201D93046F4E74F463D4600BF80
:103390006D1C6069A84204D80225BD4201D90020F5
:1033A000E8E72946204601F0C3FF064606B909E0D2
:1033B000701C08B1012E01D13046DBE7BD42E7D1D8
:1033C0000020D7E700BF6FF070422946204603F087
:1033D000C9F98046B8F1000F08D1B9F1000F05D046
:1033E0002A464946204603F0BDF98046B8F1000F51
:1033F0000BD1E5602069401C78B12069401E206136
:10340000607940F00100607107E0B8F1010F02D16E
:103410004FF0FF3000E0012005462846AAE70000F3
:103420002DE9F34F83B0814604980068019002E0D3
:103430000198401C0190019800782F28F8D001983D
:1034400000785C28F4D0D9F81CA000252F4600BFD6
:1034500038467F1C01990C5C202C03DB2F2C01D0FB
:103460005C2C00D132E0FF2D03D3062005B0BDE86F
:10347000F08FE4B2812C13DBE0B2FE2810DC38467A
:103480007F1C01990E5C06EB042084B2402E01DB08
:103490007E2E05DD802E01DBFE2E01DD0620E5E718
:1034A0000121204601F0ECFB04460CB90620DDE7C3
:1034B000802C06DA214671A0FFF7DEFE08B1062057
:1034C000D4E728466D1C2AF81040C1E700BF0198D8
:1034D000C11904980160202C01DA042000E00020CA
:1034E000804608E0681E3AF81040202C02D02E2CAE
:1034F00000D002E06D1E002DF4D100BF0DB90620F2
:10350000B4E700202AF815000B222021D9F8180072
:1035100003F0C4F8002700E07F1C3AF817002028C9
:10352000FAD03AF817002E28F6D00FB148F0030869
:1035300000E06D1E25B1681E3AF810002E28F8D163
:103540000020064602904FF0080B00BF38467F1C53
:103550003AF8104004B963E0202C03D02E2C04D19B
:10356000AF4202D048F00308F0E70298584501D274
:10357000AF4214D1BBF10B0F02D148F003084FE06A
:10358000AF4201D048F00308AF4200D948E02F46CF
:10359000082002904FF00B0BB006060ED6E7802CE9
:1035A00009DB204601F0AAFB0021009001F068FB36
:1035B000044648F00208FF2C11DDABF1010002992E
:1035C000884204D848F00308CDF808B0BEE72212BC
:1035D000D9F818300298411C02911A5419E024B10C
:1035E000214629A0FFF748FE18B15F2448F00308E0
:1035F0000FE0412C04DB5A2C02DC46F0020608E006
:10360000612C06DB7A2C04DC46F00106A4F12000D4
:1036100084B2D9F818300298411C02911C5495E7E5
:1036200000BFD9F818000078E52803D10520D9F8A3
:1036300018100870BBF1080F01D1B006060E06F095
:103640000C000C2803D006F00300032801D148F039
:10365000020808F0020058B906F00300012801D161
:1036600048F0100806F00C00042801D148F00808C2
:10367000D9F8180080F80B800020F7E6222A3A3C9F
:103680003E3F7C7F000000002B2C3B3D5B5D00003B
:1036900010B5134800680B2820D11249096801EBC6
:1036A0004101114A02EB810001F08DF90FA0FFF7F3
:1036B000ADF80A200A4908600A480068401C094918
:1036C00008600E480068401E0C4908600548006804
:1036D000B0F52F7F02D100200249086010BD000024
:1036E000280000202C000020D2720020C9BEB3FDAB
:1036F000CEC4BCFEB3C9B9A60D0A0000300000203C
:103700002DE9F04104460E460021204600F065FAFE
:103710000546EDB9002700BF2169206802F0C8FF07
:10372000054605B113E060690078E52802D06069BC
:10373000007820B9781C0746B04201D107E0002785
:103740000121204600F07FF80546002DE4D000BF9F
:10375000042D00D107252846BDE8F0812DE9F0476A
:1037600004460021204600F038FA074617B13846D3
:10377000BDE8F0874FF0FF09CA464FF6FF7020847E
:1037800000BF2169206802F093FF074607B157E0A8
:1037900065692E780EB9042752E0E87A00F03F08F8
:1037A000E52E05D008F0080040B1B8F10F0F05D0A4
:1037B0004FF0FF094FF6FF7020843AE0B8F10F0F89
:1037C0001CD1E06978B306F0400030B195F80DA047
:1037D00026F04006B146E08820844E450AD1687B39
:1037E000504507D12946E069FFF75EFD10B1A9F108
:1037F000010000E0FF2000F0FF091AE0B9F1000F1E
:1038000005D1284603F0C8F8504500D118E0A0695A
:10381000C07A00F0010038B90B222846A16902F0F5
:103820001DFF08B90CE004E04FF0FF094FF6FF70F0
:1038300020840021204600F006F80746002FA0D083
:1038400000BF384694E72DE9F04104468846E088F9
:10385000461CB0B208B1206910B90420BDE8F0815F
:1038600021684889C11700EBD1614911B6FBF1F21B
:1038700001FB1261002971D12069401C2061E068C0
:1038800028B920680089B04268D80420E6E721689A
:103890004889C11700EBD1614911B6FBF1F12268EB
:1038A0009278521E1140002958D1E168206801F039
:1038B0003FFD0546012D01D80220CFE7681C08B95D
:1038C0000120CBE720684069A84241D8B8F1000F39
:1038D00001D10420C2E7E1682068FFF735FD054605
:1038E0000DB90720BAE7012D01D10220B6E7681C07
:1038F00008B90120B2E7206803F013F908B10120EC
:10390000ACE721684A8901F13000002102F0C6FECF
:1039100029462068FFF7BAFC2168C86200270EE03C
:10392000012021680871206803F0FBF808B101202C
:1039300094E72068C06A401C2168C8627F1C206828
:103940008078B842ECD82068C06AC01B2168C86281
:10395000E56029462068FFF799FC2061E680216830
:103960004889C11700EBD1614911B6FBF1F201FBA7
:1039700012612268303202EB4111616100206DE773
:103980002DE9F05F04468A464FF0FF09CB46042735
:103990004FE02169206802F08BFE074607B14BE03B
:1039A000666935780DB9042746E0F07A00F03F08E3
:1039B000E52D0AD02E2D08D028F02000082801D1AE
:1039C000012000E00020504502D04FF0FF0929E01F
:1039D000B8F10F0F1AD105F0400030B196F80DB0D4
:1039E00025F04005A946E08820844D450AD1707B2A
:1039F000584507D13146E06902F074FE10B1A9F1D3
:103A0000010000E0FF2000F0FF090BE0B9F1000F1A
:103A100004D1304602F0C0FF584502D04FF6FF7087
:103A2000208409E000212046FFF70DFF074607B17B
:103A300002E020690028ACD100BF0FB10020206156
:103A40003846BDE8F09F2DE9FE4F0446D4F81880B3
:103A5000D4F81C900C224146684602F012FE00BFCA
:103A60009DF80B0000F0010020B3002088F80B0047
:103A7000E06101260CE033464A466946404601F0C3
:103A8000F1FB2046FFF76AFE054605B102E0761C11
:103A9000642EF0D300BF642E02D10720BDE8FE8F54
:103AA000042D01D02846F9E79DF80B0088F80B009B
:103AB000C4F81C909DF80B0000F0020060B10026D5
:103AC00000E0761C39F816000028FAD106F119003A
:103AD0000D21B0FBF1F700E0012739462046FFF742
:103AE0000FFE054645BB781E071E25D0E088C11B8A
:103AF000204600F072F80546F5B9A06902F04CFFC7
:103B0000824600BF2169206802F0D2FD054605B15A
:103B100011E0FAB253466169E06901F009FB012046
:103B20002168087100212046FFF78DFE054615B972
:103B3000781E071EE6D100BFC5B92169206802F0D2
:103B4000B7FD054695B920220021606902F0A6FD67
:103B50000B22D4E9050102F094FDA069C07A00F0BF
:103B6000180061690873012021680871284695E7EB
:103B700070B50446E688208C4FF6FF72904201D162
:103B8000304600E0208C0146204600F026F805462D
:103B90000DBB00BF2169206802F08AFD054605B112
:103BA00015E020220021606902F078FDE5206169BE
:103BB0000870012021680871E088B04200D306E057
:103BC00000212046FFF73FFE0546002DE2D000BF52
:103BD000042D00D10225284670BD2DE9F041044690
:103BE0000E46E680A568012D03D020684069A842F2
:103BF00002D80220BDE8F0812DB9206800780328A2
:103C000001D12068456A45B920680089B04201D8D1
:103C10000220EFE72068476A24E021684889C1173D
:103C200000EBD16149112268927801FB02F812E0A1
:103C30002946206801F07CFB0546681C08B9012074
:103C4000D8E7022D03D320684069A84201D802209A
:103C5000D0E7A6EB08064645EAD229462068FFF7DA
:103C600015FB0746E5600FB90220C3E721684889C4
:103C7000C11700EBD1614911B6FBF1F13944216163
:103C800021684889C11700EBD1614911B6FBF1F2F7
:103C900001FB12612268303202EB411161610020A8
:103CA000A8E770B50446012514B1012C09D107E03D
:103CB000FDF7EEFF10B925F0010500E0012502E057
:103CC00001E0012500BF00BF284670BD2DE9F04787
:103CD00005460E4614464FF0040915B1012D21D1B9
:103CE0001FE0CEB1012E0BD0022E02D0032E14D134
:103CF00003E04FF4007020800FE0012020600CE012
:103D00000C48D0F850C062460023D0E91271384602
:103D1000FCF72AFA206000E000BF00BF4FF0000966
:103D200003E002E04FF0040900BF00BF4846BDE8D1
:103D3000F087000028AF00202DE9F04FADF5017DA0
:103D400081460C4615461E464FF0040B4FF0000A04
:103D5000B9F1000F03D0B9F1010F42D140E004F0F6
:103D60000300E8B1002711E02A466D1C012301A9D8
:103D70000020FFF7E1FF074607B10BE04FF40072A8
:103D800001A92046FCF721FA04F50074301EA6F1C3
:103D90000106E9D100BF38460DF5017DBDE8F08F81
:103DA0004FF40070A5FB00713A460B46CDE90006C2
:103DB0002046FEF735F98246BAF1000F07D1FEF72B
:103DC000E1F9824600BFFDF754FF0028FBD1BAF1AC
:103DD000000F02D04FF0040B01E04FF0000B03E0A6
:103DE00002E04FF0040B00BF00BF5846D4E7014685
:103DF000012011B1012904D102E020F0010002E00C
:103E000001E0012000BF00BF70472DE9F04FADF584
:103E1000017D81460C4616461D464FF0040B4FF0BF
:103E2000000A25B904200DF5017DBDE8F08FB9F138
:103E3000000F03D0B9F1010F3FD13DE004F00300C2
:103E4000D0B1002711E04FF40072214601A8FCF721
:103E5000BCF93246761C012301A90020FFF7D5FFEB
:103E6000074607B105E004F50074281EA5F1010519
:103E7000E9D100BF3846D6E74FF40070A6FB0071C9
:103E80003A460B46CDE900052046FEF7B3F98246D7
:103E9000BAF1000F07D1FEF78FF9824600BFFDF798
:103EA000E8FE0028FBD1BAF1000F02D04FF0040B5E
:103EB00001E04FF0000B03E002E04FF0040B00BF05
:103EC00000BF5846AFE770B50546284600F023FD11
:103ED000044634B9284602F069FE04460CB90020B5
:103EE0002860204670BD00002DE9F74F90B0914644
:103EF0001198012803DD132013B0BDE8F08F10A83E
:103F000001F0BAFA0F900F98002801DA0B20F3E7BE
:103F1000FA490F9851F820500DB90C20ECE7002019
:103F200028700F98C0B20C9000200B900C98FFF7EF
:103F3000B8FE0190019800F0010008B10320DBE712
:103F4000019800F0040008B10A20D5E705F10A0243
:103F500002210C98FFF7BAFE38B96889B0F5805F86
:103F600003DC6889B0F5007F01DA0120C4E700BFF7
:103F700004AA01210C98FFF7A9FE10B90498802823
:103F800001D20120B8E7119808B1002000E03F20DD
:103F900082460498A0EB0A000490A9F1010000EA0F
:103FA000090008B14FF00009B9F1000F1AD1688972
:103FB000C11700EBD15149124FF4FA6292FBF1F1B3
:103FC000049AB2FBF1F10A914FF0000B01E00BF102
:103FD000010BCB4830F81B100A988142F7D8C9482A
:103FE00030F81B90B9F5007F02D36889B9FBF0F96E
:103FF000B9F1000F01D14FF00109B9F1800F01D9DA
:104000004FF080090498B0FBF9F8012640F6F670ED
:10401000804500D302264FF6F670804500D3032674
:10402000032E0CD1082000EB880069890844401E4B
:10403000B0FBF1F7202003900020029019E0012E40
:1040400005D108EB4800401C4008C01C02E04FEAC4
:104050004800001D074668893844401E6989B0FB46
:10406000F1F70120039068894FF48041B1FBF0F033
:10407000029003985044079007983844069002999C
:1040800006980844059005984844A0EB0A00049956
:10409000884201D90E202FE709AA03210C98FFF7C7
:1040A00015FE28B9099818B10998B0F5004F01D943
:1040B00001200990099905980844401E491E88432B
:1040C000099009990598081A0990032E08D10999B1
:1040D000039808440390099907980844079001E061
:1040E00009980744DDE90301081AC11B0298081A60
:1040F000B0FBF9F8022E03D140F6F670804505D3E7
:10410000032E05D14FF6F670804501D20E20F3E65E
:10411000032E02D10C200D9010E0012E06D1049840
:10412000B0F5803F02D201200D9007E00498B0F571
:10413000803F01D2042000E006200D9000BF1198BE
:1041400010B1F0200E9043E06A89002105F13000A3
:1041500002F0A4FA05F5F77401206070A070002049
:10416000E0700D982071FE206071049850443F214A
:10417000B0FBF1F0FF21B0FBF1F009903F2109986D
:1041800041EA9000A0710998E0713F20207200215F
:104190006172A172E172049820730498010A61733C
:1041A0000498010CA1730498010EE173552185F860
:1041B0002E12AA2185F82F120123002205F13001C9
:1041C0000C98FFF722FE08B1012095E6F8200E902A
:1041D00005F130046A890021204602F05FFA0B22C3
:1041E00049A1204602F04DFAB5F80AB084F80BB0A8
:1041F0004FEA1B21217384F80D900398A073039854
:10420000010AE17301202074032E01D1002001E096
:104210004FF40070834684F811B04FEA1B21A1745B
:104220000498B0F5803F05D20498E0740498010A20
:10423000217510E0049884F820000498C0F3072149
:10424000212001550498C0F307412220015504980C
:10425000010E232001550E9860753F202076002125
:104260006176FF20A076E17684F81CA04FEA1A213F
:1042700061774FEA1A41A1774FEA1A61E17701F0BD
:10428000F7F80990032E4BD1099884F84300099858
:10429000C0F30721442001550998C0F30741452088
:1042A00001550998010E4620015584F82470C7F382
:1042B000072125200155C7F3074126200155390E56
:1042C00027200155022084F82C0000212D200155C3
:1042D0002E2001552F200155012084F83000312077
:1042E0000155062084F8320033200155802084F8DF
:1042F0004000292084F8420013220BE02C0100200A
:104300007A6C0008906C0008EBFE904D53444F53BC
:10431000352E30008AA104F1470002F0B2F91FE007
:10432000099884F827000998C0F30721282001552F
:104330000998C0F30741292001550998010E2A2048
:104340000155A775390AE175802084F824002920D9
:1043500084F8260013227FA104F12B0002F091F9CA
:10436000552084F8FE01AA2140F2FF1001550123D7
:10437000524621460C98FFF748FD08B10120BBE5E5
:10438000032E06D101230AF1060221460C98FFF7FD
:104390003CFD079808904FF0000B5FE06A89002110
:1043A000204602F07BF90E980990032E14D0012EBE
:1043B00001D16D4801E06FF0FF00099908430990B1
:1043C000099820700998000A60700998000CA07084
:1043D0000998000EE07019E0099860F0FF0009905C
:1043E000099820700998000A60700998000CA07064
:1043F0000998000EE070FF202071FF216171A1710A
:10440000E17120726172A1720F21E1720898411C62
:1044100002460123089121460C98FFF7F6FC08B1EB
:10442000012069E56A890021204602F037F9012060
:1044300009900EE00898411C02460123089121468C
:104440000C98FFF7E2FC08B1012055E50998401CE3
:1044500009900998B842EDD30BF1010BBBF1000FA5
:104460009CD0032E01D1484600E00298834600BF4D
:104470000898411C02460123089121460C98FFF739
:10448000C4FC08B1012037E5ABF10100B0F1000B2D
:10449000EED1032E49D15220207060706120A070AF
:1044A0004120E070722084F8E401722140F2E510AE
:1044B00001554121401C01556121401C0155A8F1C5
:1044C000010084F8E801C0F3072140F2E91001552A
:1044D000A8F10100C0F307414FF4F5700155A8F1B0
:1044E0000100010E40F2EB100155022084F8EC01AE
:1044F000002140F2ED100155401C0155401C0155B2
:10450000552084F8FE01AA2140F2FF100155012335
:104510000AF1010221460C98FFF777FC01230AF10A
:10452000070221460C98FFF770FC002211460C98F8
:10453000FFF7CCFB08B10120DEE40020DCE4000042
:104540004E4F204E414D45202020204641543332CD
:10455000202020004E4F204E414D45202020204657
:10456000415420202020200000FFFF00F7B582B03A
:1045700016460398019001A800F07EFF0546002D25
:1045800002DA0B2005B0F0BD0E4850F825400CB102
:1045900000202070029810B100200299087009498B
:1045A000029841F82500029808B1012E01D00020A0
:1045B000E8E7002203A902A800F0CEFB0746384630
:1045C000E0E700002C0100202DE9F743ADF50C7D5C
:1045D0000546164625B909200DF50F7DBDE8F08387
:1045E0000020286006F01F0626F001028DA983A88E
:1045F00000F0B2FB0746002F74D180A88990CDF857
:1046000028D283A88D9900F0D3FD0746889C0FB966
:1046100004B9062706F01C0000285CD04FB1042F17
:1046200003D183A8FFF70FFA074646F00806889CD7
:1046300009E0E07A00F0110008B1072703E006F076
:10464000040000B10827002F55D106F0080000280B
:1046500051D000F00DFF804684F80E804FEA1821FB
:10466000E1734FEA184121744FEA1861617484F8CC
:1046700016804FEA1821E1754FEA184121764FEA7A
:10468000186161760020E072207700216177A177C0
:10469000E1772146839800F014FF814600212046EF
:1046A00002F072F9012083990871B9F1000F22D04C
:1046B0008398D0F82C804946839802F017F9074672
:1046C000CFB9A9F101008399C8604146839801F0F0
:1046D000EFFF07460FE077B9E07A00F0100010B165
:1046E000042708E02DE006F0020020B1E07A00F097
:1046F000010000B1072747B906F0080008B146F0ED
:1047000020068398C06AE8612C62D7B9AE71002098
:10471000E8712146839800F0D4FE2861E07F01060D
:10472000A07F41EA0041607F41EA0020217F0843E9
:10473000E8600020A860A861839828602868C08885
:10474000A880384648E72DE9FF4F85B00446154656
:104750009A46DDF818B00020CAF80000204602F0A2
:1047600025FA0490049818B1049809B0BDE8F08FB8
:10477000E07908B1E079F8E7A07900F0010008B924
:104780000720F2E7D4E90210401A0290029885420D
:1047900000D9029DBAE021684989A068B0FBF1F216
:1047A00001FB1200002877D121684989A068B0FB7D
:1047B000F1F021688978491E084000F0FF09B9F13D
:1047C000000F17D1A06810B92069039004E0616957
:1047D000206800F0ADFD03900398022802D2022069
:1047E000E071C2E70398401C10B90120E071BCE7FA
:1047F0000398606161692068FEF748FD064616B9B6
:104800000220E071B1E74E4420684089B5FBF0F822
:10481000B8F1000F2DD009EB080021688978884293
:1048200003D920688078A0EB0908216848784346BE
:1048300032465946FFF780FA10B10120E07194E743
:10484000A07900F0400078B1A069801B40450BD2F0
:10485000A169891B23685B8901FB03B021684A8930
:1048600004F1240101F00DFF2068408900FB08F7E6
:1048700042E0A069B04220D0A07900F0400080B1B1
:1048800021684878012304F12401A269FFF7BDFAE9
:1048900018B10120E07168E710E0A07920F0400035
:1048A000A071216848780123324604F12401FFF702
:1048B00043FA10B10120E07157E7A66121684989E8
:1048C000A068B0FBF1F201FB1200216849890F1AC0
:1048D000AF4200D92F4621684989A068B0FBF1F2A8
:1048E00001FB120104F1240008443A4601460190FC
:1048F000584601F0C6FE00BFBB44A0683844A06023
:10490000DAF800003844CAF80000ED1B002D7FF4EF
:1049100042AF002029E72DE9F0410446204602F08D
:1049200045F90746002F4CD1A07900F0200000285F
:1049300047D0A07900F0400078B121684878012381
:1049400004F12401A269FFF760FA10B10120BDE86B
:10495000F081A07920F04000A071E169206801F0A9
:10496000A7FE0746002F2CD1256AE87A40F02000E8
:10497000E872207B2877A089010A6977E068010C3A
:10498000A977E068010EE9772846216901F0FCFF6C
:1049900000F06EFD0646AE75310AE975310C2976D8
:1049A000310E69760020A8740021E974A07920F006
:1049B0002000A071012021680871206802F04DF8E4
:1049C00007463846C3E771B5ADF5157D00260122CF
:1049D00095A98CA800F0C0F90446002C46D180A807
:1049E0009290CDF84CD28CA8959900F0E1FB04464A
:1049F00000BF002C3AD1919D0DB9062404E0E87A5D
:104A000000F0010000B10724FCB929468C9800F0A1
:104A100058FD0646CEB1E87A00F01000A8B1242275
:104A20008CA983A801F02DFE8596022183A8FFF7AB
:104A3000D4F804464CB9002183A8FEF7A1FF044630
:104A400004B90724042C00D100247CB98CA8FFF7FA
:104A50008FF804462CB926B131468C9801F046FFF8
:104A600004461CB98C9801F0F8FF044620460DF569
:104A7000167D70BD2DE9FF4F83B0044615469B4659
:104A8000049801900020CBF80000204602F08EF838
:104A90000290029818B1029807B0BDE8F08FE07953
:104AA00008B1E079F8E7A07900F0020008B9072022
:104AB000F2E7A0682844A168884200D20025CFE030
:104AC00021684989A068B0FBF1F201FB12000028BF
:104AD0007ED121684989A068B0FBF1F0216889780E
:104AE000491E084000F0FF0ABAF1000F1ED1A0686D
:104AF00038B9276957B900212068FEF725FC074619
:104B000004E061692068FEF71FFC074607B9AAE0C8
:104B1000012F02D10220E071BEE7781C10B90120FC
:104B2000E071B9E76761206900B92761A07900F0F9
:104B3000400078B121684878012304F12401A2697A
:104B4000FFF763F910B10120E071A5E7A07920F02B
:104B50004000A07161692068FEF798FB064616B90F
:104B60000220E07198E7564420684089B5FBF0F9CF
:104B7000B9F1000F31D00AEB090021688978884229
:104B800003D920688078A0EB0A09216848784B4651
:104B900032460199FFF739F910B10120E0717BE746
:104BA000A069801B484511D2A069831B2068B0F81A
:104BB0000AC0019803FB0C012068428904F124001B
:104BC00001F05FFDA07920F04000A071206800E0B6
:104BD00017E0408900FB09F835E0A069B0420FD02A
:104BE000D4E9020188420BD2216848780123324679
:104BF00004F12401FFF7A0F810B10120E0714BE7A8
:104C0000A66121684989A068B0FBF1F201FB12009E
:104C100021684989A1EB0008A84500D9A846216868
:104C20004989A068B0FBF1F201FB120104F12400F4
:104C3000084442460090019901F023FDA07940F01C
:104C40004000A07100BF019840440190A06840441A
:104C5000A060DBF800004044CBF80000A5EB08059D
:104C6000002D7FF42DAF00BFD4E90201884201D9A5
:104C7000A068E060A07940F02000A07100200BE760
:104C80002DE9F04102460F46802A01DA10462FE056
:104C90001FB1184B45F2205602E0174B45F2205643
:104CA0000025102416E0A6EB050C0CEBDC7805EBD8
:104CB00068014FEA410C33F81CC0944500D10BE069
:104CC0004FEA410C33F81CC0944501DA0D4600E070
:104CD0000E46641E002CE6D100BF34B14FF0010C2B
:104CE0000CEB410C33F81CC001E04FF0000C6046A7
:104CF000BDE8F0812AC10108A66C000830B5802803
:104D000007DA612823DB7A2821DCA0F12005A8B28C
:104D10001DE00C2200234FF4F77400BFE51A03EBEB
:104D200055010B4D35F81150854200D10AE0084D70
:104D300035F81150854201DA0B4600E00C46551E4D
:104D40002A1EEBD100BF12B1024D35F8110030BD63
:104D5000AE1503088A1903082DE9F74F8AB0002120
:104D60000A9801600B9800F087FB099009980028C9
:104D700003DA0B200DB0BDE8F08FE949099851F82E
:104D800020400CB90C20F5E70A980460207878B12F
:104D90006078FFF72CF8814609F0010040B90C98C3
:104DA00020B109F0040008B10A20E3E70020E1E7A0
:104DB00000202070099860706078FEF772FF8146CD
:104DC00009F0010008B10320D4E70C9820B109F0E4
:104DD000040008B10A20CDE7607804F10A0202213C
:104DE000FEF774FF38B96089B0F5007F03DB608996
:104DF000B0F5805F01DD0120BCE700273946204681
:104E0000FEF7F2F90546012D01D09DBB32E00026E8
:104E10001AE004F5F77000EB061898F8040070B17A
:104E200098F80B00010698F80A0041EA004198F84A
:104E3000090041EA002098F80810084300E000202B
:104E400002A941F82600761C042EE2D3002606B102
:104E5000761E00BF02A850F8267027B139462046BA
:104E6000FEF7C2F900E0022005461DB1701C06469F
:104E70000428EFD3032D01D101207BE70DB10D20D4
:104E800078E73B20015D94F83C0041EA002061890D
:104E9000884201D00D206DE74620015D94F847005F
:104EA00041EA002ABAF1000F0ED194F8570001062A
:104EB00094F8560041EA004194F8550041EA002078
:104EC00094F8541040EA010AC4F818A04020005D8C
:104ED000E070E078012804D0E078022801D00D20AD
:104EE00048E7E0780AFB00FA3D20005DA070A0785A
:104EF00018B1A078411E084008B10D203AE74120C2
:104F0000015D94F8420041EA002020816089C117C8
:104F100000EBD1614911228992FBF1F301FB1321CE
:104F200009B10D2026E74320015D94F8440041EAD1
:104F300000200890089870B994F85300010694F87E
:104F4000520041EA004194F8510041EA002094F8EF
:104F50005010084308903E20015D94F83F0041EA5C
:104F600000200190019808B90D2003E76089C1175E
:104F700000EBD1614911228992FBF1F20199514470
:104F800011440791DDE90710884201D20D20F1E6B6
:104F9000DDE90710401AA178B0FBF1FBBBF1000F6F
:104FA00001D10D20E6E6012540F6F670834500D3D9
:104FB00002254FF6F670834500D303250BF102005E
:104FC0006061E76101983844206207983844A06224
:104FD000032D16D1208908B10D20CBE694F85F008F
:104FE000010694F85E0041EA004194F85D0041EA50
:104FF000002094F85C1008436062606980000690AD
:1050000014E0208908B90D20B4E6206A504460629B
:10501000022D02D16069400007E0207D00F0010010
:10502000616901EB410100EB510006906089401E6F
:10503000069908446189B0FBF1F0A169884201D961
:105040000D2097E64FF0FF302061E0608020607116
:10505000032D5AD194F8601094F8610041EA0020C1
:10506000012852D1791C204601F022FBE8BB002028
:10507000607194F82E1294F82F0241EA00204AF64B
:105080005521884241D13320005D01063220005D68
:1050900041EA00413120005D41EA002094F83010DF
:1050A00008432049884230D194F81702010694F849
:1050B000160241EA004194F8150241EA002094F8F2
:1050C00014120843184988421FD194F81B020106A4
:1050D00094F81A0241EA004194F8190241EA0020CA
:1050E00094F818120843206100E00EE094F81F02C3
:1050F000010694F81E0241EA004194F81D0241EABB
:10510000002094F81C120843E060257007480088CE
:10511000401C80B205490880E08000202AE600009B
:105120002C01002052526141727241613401002011
:10513000F0B504461D464D730F27CF7200270F733D
:105140008F76BC4681F81BC0571E07EB870C0CEB13
:10515000C706002738463B4600BF4FF6FF77B842E8
:1051600003D03746761C34F81700DFF840C01CF82F
:1051700003C001F80C000712DFF830C01CF803C0B0
:105180008C448CF8017008B94FF6FF705F1C3B46E9
:105190000D2FE2D34FF6FF77B84202D034F81670E5
:1051A0000FB942F040020A70F0BD00006C6C0008BC
:1051B0002DE9F3410446019800782F2803D0019887
:1051C00000785C2802D10198401C01900020A0606A
:1051D00001980078202807D200212046FEF7FDFC28
:1051E00005460020606128E000BF01A92046FEF7C7
:1051F00017F9054605B11FE02046FEF7AFFA054650
:10520000A069C67A3DB1042D04D100BF06F00400A8
:1052100000B9052510E006F0040000B10CE0676954
:10522000F87A00F0100008B9052505E03946206835
:1052300000F047F9A060D8E700BF2846BDE8FC8130
:1052400070B504460D46E1B20548FDF7BDFA00BF52
:1052500080210348FDF71AFA0028F9D0204670BDD6
:10526000003801402DE9FF4F83B0074691461E46A6
:105270000B223846049901F004FA052E19D9B046DC
:1052800012E039F802BB00250CE0584668F35F00D5
:1052900080464FEA6B0B08F4803010B1234888EA4F
:1052A00000086D1C102DF0D3B9F800000028E8D1DB
:1052B0004646072500BF06F00F0000F1300ABAF19C
:1052C000390F03DD0AF1070000F0FF0A28466D1EC2
:1052D00001A901F800A03609002EECD17E20485526
:1052E00000240BE0385D812807DB385DFE2804DCF4
:1052F000681EA04200D106E0641C641CAC4202D2CD
:10530000385D2028EED100BF00BF082D04D228460A
:105310006D1C01A9095C00E020212046641C395461
:10532000082CF2D307B0BDE8F08F00002110010077
:105330002DE9F05F04460D46022D02D36069A842B4
:1053400002D84FF001098FE04FF0FF392078012893
:1053500004D002283CD003287ED157E02F4607EB2B
:1053600057076089B7FBF0F0216A00EB010A51464C
:10537000204601F09DF900B175E038467F1C618937
:10538000B0FBF1F201FB120104F1300010F80180D2
:105390006089B7FBF0F0216A00EB010A5146204614
:1053A00001F086F900B15EE06089B7FBF0F100FB27
:1053B000117104F13000405C48EA002805F001005A
:1053C00010B14FEA181001E0C8F30B0081464AE023
:1053D000B4F80AA00AEBDA704010B5FBF0F0216ACD
:1053E00000EB010B5946204601F062F900B13AE0AA
:1053F00068006189B0FBF1F201FB120104F1300099
:105400000E183078717840EA01292CE0B4F80AA02F
:105410004FEAEA700AEB90708010B5FBF0F0216A59
:1054200000EB010B5946204601F042F900B11AE0A9
:10543000A8006189B0FBF1F201FB120104F1300018
:105440000E18F0780006B17840EA0140717840EA21
:1054500001203178084300E002E020F0704902E0CA
:105460004FF0010900BF00BF4846BDE8F09F0000B3
:10547000004870470000214670B502464FF0FF30EB
:105480001568E5B1116800E0491C0D78202D02D3A4
:105490000D783A2DF8D10D783A2D0FD1146814F803
:1054A000015BA5F130030A2B07D28C4205D1022BF8
:1054B00003D218464D1C2946156070BD002000BF60
:1054C000FBE710B502468C7ECB7E44EA03201378BE
:1054D000032B05D10C7D4B7D44EA032340EA0340B6
:1054E00010BD000081B2094A904201D1084A116101
:1054F000084A904201D1084A1160084A904202D0FD
:10550000074A904201D1074A1160704740000100EC
:1055100000200140000102001008014000010300CA
:1055200000020400100C014081B2094A904201D1EE
:10553000084A5161084A904201D1084A1160084A5C
:10554000904202D0074A904201D1074A1160704749
:105550004000010000200140000102001408014049
:105560000001030000020400140C014008B50121F1
:105570004FF48670FBF7BAFE4020ADF80000032020
:105580008DF8020010208DF8030069461048FBF7E3
:1055900015FD4FF48070ADF8000003208DF8020077
:1055A00010208DF8030069460A48FBF707FD4FF409
:1055B0004070ADF8000003208DF8020010208DF837
:1055C000030069460448FBF7F9FC00F007F808BD42
:1055D0000020014000080140000C014010B54021AE
:1055E0000648FBF776FD4FF480710548FBF771FD27
:1055F0004FF440710348FBF76CFD10BD00200140E3
:1056000000080140000C0140FCF724FFFFF7AEFF4B
:10561000FBF786FBFBF74CFBFBF7A4FDFAF770FFEB
:10562000FAF76CFEFCF78EFFD6A0FDF7EFF801222B
:10563000DFA1E048FEF79AFFDF4908704020DF490C
:105640004861DD4800780D282BD1DDA0FDF7DEF89C
:1056500000221146D6A0FEF747FCD749087008463D
:10566000007888B9E1A0FDF7D1F80122D0A100208F
:10567000FEF77CFFD04908700122CDA1CD48FEF78E
:1056800075FFCD4908701CE04020CC49486180007E
:10569000DE490860DE490860DEA0FDF7B7F800BF0C
:1056A000FEE7C548007848B1C3480178DFA0FDF7A0
:1056B000ADF8E7A0FDF7AAF800BFFEE7ECA0FDF704
:1056C000A5F8F5A0FDF7A2F8FEE3FE48006806285D
:1056D0007DD2DFE810F00600F500BB02AD03D80470
:1056E000C50501F047FA2E20F749487163208871FB
:1056F0007320C871762008720A22F448FEF764FF0E
:10570000AD49087001F028F9FDF7C2FFAA480078FA
:1057100000287BD1EE48FDF779F8FDF773F9C9E071
:10572000EC480068002872D1EB4800680128FAD1E3
:10573000EA480068EA490968884268D0FDF79EFC9B
:10574000E84B0A22E849E148FFF794F99A490870C2
:10575000E44B0222E549DD48FFF78CF996490870D1
:10576000E04B0A22E249D948FFF784F992490870D0
:10577000DC4B0222DD49D548FFF77CF98E490870E1
:10578000D6480068C0EBC000DA4901EB8000007A1F
:1057900040B9D44B0722D849CC48FFF76BF986496A
:1057A000087007E0CF4B0722D449C848FFF762F9D9
:1057B00081490870CB4B0222CC49C448FFF75AF903
:1057C0007D490870C74B0122CD49C04800E02DE358
:1057D000FFF750F978490870C24B0222C349BB4811
:1057E000FFF748F974490870BC480068C0EBC00076
:1057F000C04901EB8000407A50B9BA4B0722C14939
:10580000B248FFF737F96C49087009E054E03BE013
:10581000B44B0722BC49AD48FFF72CF96649087024
:10582000B04B0222B149A948FFF724F96249087038
:10583000AC4B1722B549A548FFF71CF95E49087023
:10584000A84B0222A949A148FFF714F95A49087048
:10585000A44B0A22AE499D48FFF70CF9564908703F
:10586000A04B0322AB499948FFF704F9524908704D
:10587000A9480068401EA84908609E48FBF742F905
:105880000A219948FAF7BAFC9348006802280BD01D
:1058900092480068C0EBC000964901EB8000806927
:1058A00040F6B831884205DD86480068401C8549CD
:1058B000086000E034E700BF8448FEF704FB00BF47
:1058C00086480068C0EBC0008A4901EB800080690F
:1058D00040F6B831884200DAA8E201F04BF92E20F8
:1058E00079494871632088717320C87176200872E5
:1058F0000A228A48FEF768FE8949087001F02CF8F0
:10590000FDF7C6FEFDF708F995E17248006800282A
:1059100037D1714800680128FAD170480068704991
:10592000096888422DD0FDF7A9FB7E4B0A226E49FB
:105930007A48FFF79FF87A4908707A4B02226B4940
:105940007648FFF797F876490870764B0A2268493F
:105950007248FFF78FF872490870724B0222634950
:105960006E48FFF787F86E4908705C480068C0EB26
:10597000C000604901EB8000007A08B9694BD3E0B0
:10598000DAE047E10D0A2A2A2A2A2A2A20D5E2CA81
:10599000C7D2BBB8F65344BFA820CEC4BCFECFB517
:1059A000CDB3CAB5D1E9202A2A2A2A2A2A0D0A000B
:1059B000303A000048010020500000200020014043
:1059C000A1B75344BFA8BBB9C3BBD3D0CEC4BCFEA0
:1059D000CFB5CDB3A3ACBCB4BDABBDF8D0D0B8F19E
:1059E000CABDBBAF2E2E2E0D0A000000A1B7534436
:1059F000BFA8D2D1B3C9B9A6B8F1CABDBBAFCEC496
:105A0000BCFECFB5CDB3A1A30D0A00001008014024
:105A1000100C0140A1B6A1B6B8F1CABDBBAFCAA770
:105A2000B0DCA1A3A1B7A1B70D0A0000A3A1A3A157
:105A30005344BFA8B9D2D4D8CEC4BCFECFB5CDB3E1
:105A4000CAA7B0DCA1A3282564290D0A0000000024
:105A5000A3A1A3A1BFC9C4DCD4ADD2F2A3BA53445D
:105A6000BFA8CEB4B2E5C8EBA1A30D0A00000000A8
:105A7000A1B7CEC4BCFECFB5CDB3B9D2D4D8B3C9CB
:105A8000B9A6A3ACBFC9D2D4BDF8D0D0B6C1D0B4EA
:105A9000B2E2CAD40D0A00000D0A2A2A2A2A2A2AAA
:105AA00020BCB4BDABBDF8D0D0CEC4BCFED0B4C811
:105AB000EBB2E2CAD42E2E2E202A2A2A2A2A2A0D16
:105AC0000A0000001C000020A072002078110020B5
:105AD000681D03080400002000000020F0000020E2
