:020000040800F2
:10000000A8290020450100084D0100084F01000803
:1000100051010008530100085501000800000000CC
:100020000000000000000000000000005701000870
:1000300059010008000000005B0100085D01000894
:100040005F0100085F0100085F0100085F01000810
:100050005F0100085F0100085F0100085F01000800
:100060005F0100085F0100085F0100085F010008F0
:100070005F0100085F0100085F0100085F010008E0
:100080005F0100085F0100085F0100085F010008D0
:100090005F0100085F0100085F0100085F010008C0
:1000A0005F0100085F0100085F0100085F010008B0
:1000B0005F0100085F0100085F0100085F010008A0
:1000C0005F0100085F0100085F0100085F01000890
:1000D0005F0100085F0100085F0100085F01000880
:1000E0005F0100085F0100085F0100085F01000870
:1000F0005F0100085F0100085F0100085F01000860
:100100005F0100085F0100085F0100085F0100084F
:100110005F0100085F0100085F0100085F0100083F
:100120005F0100085F0100085F0100085F0100082F
:10013000DFF80CD000F090F800480047A13E00081E
:10014000A82900200648804706480047FEE7FEE74A
:10015000FEE7FEE7FEE7FEE7FEE7FEE7FEE7FEE777
:10016000D1180008310100082DE9F05F0546002094
:1001700092469B4688460646814640241BE0284618
:1001800041464746224600F057F853465A46C01AA1
:10019000914110D311461846224600F03EF82D1A20
:1001A00067EB01084F4622460120002100F035F898
:1001B00017EB00094E41201EA4F10104DFDC484684
:1001C00031462A464346BDE8F09F40EA01039B07BB
:1001D00003D009E008C9121F08C0042AFAD203E0BC
:1001E00011F8013B00F8013B521EF9D2704730B5BF
:1001F0000B46014600202022012409E021FA02F5E5
:100200009D4205D303FA02F5491B04FA02F528447E
:10021000151EA2F10102F1DC30BD202A04DB203AD8
:1002200000FA02F1002070479140C2F1200320FA49
:1002300003F3194390407047202A04DB203A21FA47
:1002400002F00021704721FA02F3D040C2F12002EF
:100250009140084319467047064C074D06E0E06898
:1002600040F0010394E8070098471034AC42F6D3FD
:10027000FFF762FF28F8020848F8020870B5002569
:100280004FF4803400E0641E24B1802000F0B0FC04
:100290000028F8D014B90325284670BD40F2FF505D
:1002A00000F064FC2846F8E7014600BF0748406BB1
:1002B00000F045000028F9D040F2FF50034A906357
:1002C0001046406908221040C0B2704700800140CB
:1002D00070B500251048446B01E00F48446B04F0F2
:1002E00045000028F9D004F0040028B103250420BB
:1002F00000F03CFC284670BD04F0010028B1012547
:10030000012000F033FC2846F5E740F2FF5000F0F2
:100310002DFC2846EFE700000080014070B5002565
:100320000B48446B01E00A48446B04F04500002888
:10033000F9D004F0040028B10325042000F016FCD5
:10034000284670BD40F2FF5000F010FC2846F8E748
:10035000008001402DE9F04106460F464FF00008AD
:100360002248456B01E02148456B05F04500002817
:10037000F9D005F0040038B14FF00308042000F074
:10038000F5FB4046BDE8F08105F0010030B14FF0CB
:100390000108012000F0EAFB4046F3E700F022FCF0
:1003A000B04203D04FF010084046EBE740F2FF5058
:1003B00000F0DCFB002000F02FFC044604F4604059
:1003C00018B9200C38804046DCE704F4005008B12E
:1003D0001320D7E704F4804008B11020D2E704F4DA
:1003E000004008B10F20CDE74046CBE70080014038
:1003F00070B500264FF480350F48446B02E06D1E47
:100400000D48446B04F0450008B9002DF7D115B133
:1004100004F0040028B10326042000F0A7FB3046B6
:1004200070BD04F0400028B10026402000F09EFB83
:100430003046F5E73046F3E70080014000F0805198
:1004400011B10349086001E00249486070470000AB
:10045000040402400000024021B1026842F001029F
:10046000026004E002684FF6FE731A4002607047B3
:1004700001460020002201F0805313B1054B1A6899
:1004800001E0054B1A6802EA01030BB1012000E00C
:1004900000207047000402400000024010B5002216
:1004A000026847F6F0739A430C6A8B6823430C6921
:1004B00023434C6923438C692343CC6923434C6A0F
:1004C00023438C6A23431A430260CB6843600B6862
:1004D00083604B68C36010BD2DE9FC4107460D46A3
:1004E0000026002400200090019008205D4908604B
:1004F00010204860402088600020C8604FF4806071
:100500000861084600F0C2FB1020FFF7CDFE04464C
:1005100014B12046BDE8FC815348008800045149CD
:10052000086037204860402088600020C8604FF491
:1005300080600861084600F0A9FB3720FFF7B4FE91
:1005400004460CB12046E5E74FF0FF30474908600C
:1005500008204860302088600220C86000200861C0
:1005600001204861084600F013FB00203D49086067
:1005700033204860402088600020C8604FF48060CD
:100580000861084600F082FB3320FFF78DFE044629
:100590000CB12046BEE70CE04FF4001000F028FB41
:1005A00038B100F06DFB4DF82600761C012E00D905
:1005B00006E02F48406B40F22A6108400028EBD04B
:1005C00000BF082000F014FB28B1082000F0CEFA8C
:1005D000042420469EE7022000F00AFB28B10220F6
:1005E00000F0C4FA0224204694E7202000F000FB2B
:1005F00028B1202000F0BAFA062420468AE74FF4FA
:10060000007000F0F5FA30B14FF4007000F0AEFA6F
:10061000072420467EE740F2FF5000F0A7FA00983A
:100620000006009901F47F4140EA0120009901F49D
:100630007F0140EA1120009940EA1160686001984A
:100640000006019901F47F4140EA0120019901F47B
:100650007F0140EA1120019940EA1160286020469C
:1006600058E70000782500204C0000208C25002051
:100670000080014008B50121302000F05FF94FF4FF
:10068000F850ADF8000003208DF8020018208DF816
:1006900003006946094800F015F80420ADF8000091
:1006A0006946074800F00EF80121880200F026F99B
:1006B0000121022000F022F908BD000000100140D5
:1006C000001401402DE9F0410246002500260020DB
:1006D00000230024002791F803C00CF00F0591F8C7
:1006E00003C00CF0100CBCF1000F03D091F802C055
:1006F0004CEA050591F800C0BCF1000F31D0146838
:1007000000202BE04FF0010C0CFA00F3B1F800C010
:100710000CEA03069E4220D183004FF00F0C0CFA26
:1007200003F7BC4305FA03FC4CEA040491F803C048
:10073000BCF1280F06D14FF0010C0CFA00FCC2F8F6
:1007400014C00AE091F803C0BCF1480F05D14FF086
:10075000010C0CFA00FCC2F810C0401C0828D1D3D0
:100760001460B1F800C0BCF1FF0F34DD5468002004
:100770002EE000F1080C4FF0010808FA0CF3B1F874
:1007800000C00CEA03069E4221D183004FF00F0CFB
:100790000CFA03F7BC4305FA03FC4CEA040491F895
:1007A00003C0BCF1280F05D100F1080C08FA0CF8C1
:1007B000C2F8148091F803C0BCF1480F07D100F1D2
:1007C000080C4FF0010808FA0CF8C2F81080401C21
:1007D0000828CED35460BDE8F08101617047000065
:1007E00008B501214FF4867000F0A8F84020ADF85C
:1007F000000010208DF8030003208DF802006946E8
:100800001048FFF75FFF4FF48070ADF800006946B5
:100810000D48FFF757FF4FF48070ADF800006946B0
:100820000A48FFF74FFF40210648FFF7D6FF4FF475
:1008300080710548FFF7D1FF4FF480710348FFF73F
:10084000CCFF08BD0020014000080140000C014021
:1008500008B54FF4C06000F047F831208DF8000073
:1008600000208DF801008DF8020001208DF80300B2
:10087000684600F001F808BD70B5002100230F2282
:10088000C47804B3154C246804F4E064C4F5E0644F
:10089000210AC1F10403CA40447804FA03F18478C0
:1008A0001440214309010E4C0678A155047804F048
:1008B0001F050124AC4005786D11AD0005F1E02560
:1008C000C5F8004109E0047804F01F050124AC409C
:1008D000044D0678761145F8264070BD0CED00E019
:1008E00000E400E080E100E002490143024A1160B7
:1008F000704700000000FA050CED00E029B1064A3F
:1009000052690243044B5A6104E0034A526982432C
:10091000014B5A61704700000010024029B1064A9D
:1009200012690243044B1A6104E0034A12698243CC
:10093000014B1A61704700000010024029B1064ABD
:1009400092690243044B9A6104E0034A926982432C
:10095000014B9A61704700000010024029B1064A1D
:10096000D2680243044BDA6004E0034AD26882434F
:10097000014BDA60704700000010024030B50021E2
:100980000022002400232D4D6D6805F00C0121B1DB
:10099000042905D0082923D105E0294D056022E06E
:1009A000274D05601FE0254D6D6805F47012234D3D
:1009B0006D6805F48034022505EB92421CB9214D87
:1009C000554305600BE01D4D6D6805F400351DB104
:1009D0001C4D5543056002E0194D5543056002E08A
:1009E000174D056000BF00BF144D6D6805F0F001A4
:1009F0000909154D6B5C0568DD4045600F4D6D685C
:100A000005F4E061090A104D6B5C4568DD408560C6
:100A10000A4D6D6805F46051C90A0B4D6B5C456861
:100A2000DD40C560054D6D6805F44041890B074DFB
:100A30006B5CC568B5FBF3F5056130BD0010024085
:100A400000127A0000093D005C0000206C000020CC
:100A50007CB50546002400200090019000F0DCF8F1
:100A600000F0007010B10E2420467CBD3D4909887D
:100A700088B26946FFF730FD04460CB12046F4E722
:100A8000012D36D1019800F4802000282ED0354861
:100A9000008800043449086037204860402088609E
:100AA0000020C860A8020861084600F0EFF837206F
:100AB000FFF7FAFB04460CB12046D6E702202A498C
:100AC000086006204860402088600020C8604FF41D
:100AD00080600861084600F0D9F80620FFF7E4FBC3
:100AE00004460CB12046C0E72046BEE72524204638
:100AF000BBE7019800F4803078B31A4800880004FE
:100B00001949086037204860402088600020C8608C
:100B10004FF480600861084600F0B8F83720FFF70E
:100B2000C3FB04460CB120469FE700200E49086035
:100B300006204860402088600020C8604FF4806034
:100B40000861084600F0A2F80620FFF7ADFB044656
:100B50000CB1204689E7204687E7FFE72524204699
:100B600083E700004C0000207825002001498863BD
:100B70007047000000800140014908607047000094
:100B8000A000304201490860704700008C053042E7
:100B900000210A4B02685A6242689A621A46D16A78
:100BA00021F0F701D0E902231A4303691A4343698C
:100BB0001A431143014AD16270470000008001408E
:100BC00000200649086048608860C8604862886202
:100BD000C862034888630020C863704700800140F2
:100BE000FF07C00001480069C0B2704700800140A3
:100BF00001460020034A526B0A400AB1012000E07E
:100C000000207047008001400248006800F00300A7
:100C1000704700000080014008B5014600200090A8
:100C20000248084400900098006808BD1480014004
:100C300029B1064AD26B0243044BDA6304E0034A4B
:100C4000D26B8243014BDA637047000000800140A1
:100C500000210A4A516847F6FF629143027D83688A
:100C60001A4343681A43C3681A4303681A43036963
:100C70001A431143014A516070470000008001404F
:100C80000148006870470000808001400021094B46
:100C900002689A601A46D1686FF30A01D0E901230D
:100CA0001A43C3681A4303691A431143014AD160C6
:100CB00070470000008001400549096821F00301E8
:100CC000034A116011460968014311607047000032
:100CD0000080014010B50248FFF7CAFB10BD0000BC
:100CE0000020001030B58BB005460C461348FFF7C6
:100CF000A5FB00211248FFF7AFFB124800900195B9
:100D000000200290A008039000200490802005900D
:100D10008000069080000790002008904FF400505B
:100D2000099000200A9069460548FFF7B7FB0121AA
:100D30000348FFF791FB0BB030BD000000F000103E
:100D4000440402408080014030B58BB005460C461B
:100D50001348FFF773FB00211248FFF77DFB124891
:100D60000090019510200290A008039000200490AC
:100D70008020059080000690800007900020089059
:100D80004FF40050099000200A9069460548FFF78B
:100D900085FB01210348FFF75FFB0BB030BD00006E
:100DA00000F00010440402408080014070B5044609
:100DB000002521480068032802D12725284670BD58
:100DC0001D48006838B11C480068012803D01A4843
:100DD000006802282ED1B4F5805F02D1272528466D
:100DE000EDE7B4F5006F14D10120FFF731FE0546A1
:100DF00005BB012011490875002008604860886023
:100E00004FF40060C860002008610846FFF720FF2B
:100E100010E00020FFF71CFE05465DB901200749E0
:100E200008750020086048608860C860086108464E
:100E3000FFF70EFF2846C2E748000020602500208B
:100E4000F0B5014600200022BC4B1B7881F85630DB
:100E5000BB4B1B88A1F85430BA4B1B681A0E930980
:100E60000B70C2F383034B7002F003038B70B54B1E
:100E70001B68C3F30742CA70B24B1B88C3F3072237
:100E80000A71B04B1A784A715B681A0E1301CB8055
:100E9000AC4B5B68C3F30742CB8843EA1213CB80A9
:100EA00002F00F030B72A74B9B88C3F30722D309F1
:100EB0004B72C2F380138B72C2F34013CB72C2F336
:100EC00000130B7300234B739C4B1B681BB19B4B94
:100ED0001B68012B4FD193071B0D0B61994B1A799E
:100EE0000B6943EA82030B61964B9B681A0E0B69F0
:100EF00043EA92130B61C2F3C2030B7502F00703BE
:100F00004B75904B9B68C3F3074253098B75C2F333
:100F10008203CB7593075B0F0B768A4B1B89C3F358
:100F200007220B7E43EAD2130B760B695B1C00246D
:100F3000C1E912340B7ED1E912649B1C012505FA2C
:100F400003F3DF17A6FB035C04FB03C306FB0733B5
:100F5000C1E912530C7A0123A3400B650027D1E9A4
:100F600012560B6DA5FB034C06FB03C305FB0733B1
:100F7000C1E912432DE0714B1B68022B29D1714B43
:100F80001A7993069B0A0B616E4B9B681A0E0B69CC
:100F900043EA02230B616B4B9B68C3F307420B6967
:100FA00013430B61674B1B89C3F307220B695B1C5F
:100FB0004FF40074A3FB04344FF480660025A3FBB8
:100FC000067C04FB06C403FB0543C1E912737310DE
:100FD0000B65C2F3801301F8193F93065B0E4B704B
:100FE000584B1A7A4B7843EAD2134B7002F07F03C6
:100FF0008B70544BDB681A0ED309CB70C2F34113CC
:101000000B71C2F382034B7193071B0F8B714D4B16
:10101000DB68C3F307428B7943EA92138B71C2F307
:101020004013CB7100230B7202F001034B72454B4E
:101030009B89C3F30722D3098B72C2F38013CB724F
:10104000C2F340130B73C2F300134B73C2F381035B
:101050008B7302F00303CB733A4B1A7B53080B7468
:1010600001234B74384B1B681A0ECA741939364B5E
:101070001B68C3F307421402CC85334B1B88C3F3B0
:101080000722CB8D1343CB852F4B1A7814060C63A4
:101090005B681A0E0B6B43EA02440C632A4B5B68D5
:1010A000C3F307420B6B43EA02240C63264B9B8875
:1010B000C3F307220B6B13430B63234B1A793423BF
:1010C0005A54214B9B681A0E35235A541E4B9B6869
:1010D000C3F3074214068C631B4B1B89C3F307221F
:1010E0008B6B43EA02448C63174B1A7A8B6B43EA8F
:1010F00002248C63144BDB681A0E8B6B13438B63D7
:10110000114BDB68C3F307423C235B5C43EA1214D8
:101110003C235C5413071C0DCC870B4B9B89C3F3FA
:101120000722CB8F1343CB87074B1A7B54084023EE
:101130005C54012441235C54F0BD000048000020B1
:101140004C000020D8240020E824002008B500200E
:101150000090684600F048FA08B1FF2008BD0098EA
:10116000C0F34320FAE710B50424FFF7EFFF04466D
:10117000042C01D1002010BDFF2C01D10220FAE780
:101180000120F8E710B50024FFF762FBFFF772FAC1
:10119000FFF716FD00F0CEF804460CB1204610BD56
:1011A00000F02AF804460CB12046F8E70120104967
:1011B00008750020086048608860C86008610846BB
:1011C000FFF746FD1CB90B48FFF73AFE044634B959
:1011D0000849B1F85410080400F0ECF9044624B9A9
:1011E0004FF40060FFF7E2FD04462046D7E7000019
:1011F000602500200825002038B50024012000903B
:10120000FFF702FD10B92524204638BD4448006888
:10121000042828D000204349086002204860C020EC
:1012200088600020C8604FF4806008610846FFF7BE
:101230002DFDFFF74DF804460CB12046E5E70020F0
:10124000FFF7EAFC384908600420FFF7E5FC36495F
:1012500048600820FFF7E0FC334988600C20FFF766
:10126000DBFC3149C8602E48006858B12C48006842
:10127000012807D02A480068062803D028480068BB
:10128000022816D10020274908600320486040202A
:1012900088600020C8604FF4806008610846FFF74E
:1012A000F5FC69460320FFF755F804460CB12046CB
:1012B000ABE71B48006804282ED0BDF800001B498E
:1012C0000860BDF800000004164908600920486065
:1012D000C02088600020C8604FF480600861084624
:1012E000FFF7D4FCFEF7F4FF04460CB120468CE770
:1012F0000020FFF791FC0E4908600420FFF78CFCEA
:101300000B4948600820FFF787FC094988600C20DA
:10131000FFF782FC0649C8600024204675E70000FC
:101320004800002078250020E82400204C00002000
:10133000D82400202DE9F0410024002600250027B4
:10134000A046B220594908750020086048608860AE
:10135000C86008610846FFF77BFC0320FFF7ACFC80
:101360000120FFF709FC00205149086048608860AF
:10137000C8604FF4806008610846FFF787FCFEF7FD
:101380007DFF044614B12046BDE8F0814FF4D570CE
:101390004749086008204860402088600020C860F5
:1013A0004FF4806008610846FFF770FCFFF720F8F3
:1013B00004462CB901203F4908604FF0804812E0F4
:1013C00000203B49086037204860402088600020AA
:1013D000C8604FF4806008610846FFF757FC37206B
:1013E000FEF762FF0446002031490860372048605C
:1013F000402088600020C8604FF480600861084683
:10140000FFF744FC3720FEF74FFF0446002C4AD17B
:1014100036E0002026490860372048604020886078
:101420000020C8604FF4806008610846FFF72EFC7A
:101430003720FEF739FF04460CB12046A4E71E48CA
:1014400048EA00001A490860292048604020886066
:101450000020C8604FF4806008610846FFF716FC62
:10146000FEF75CFF04460CB120468DE70020FFF735
:10147000D3FB0646012080EAD67080F001076D1C80
:101480001FB94FF6FF708542C3D34FF6FF708542F8
:1014900002D31B24204677E706F08040061E02D0C8
:1014A00002200449086020466EE700006025002005
:1014B0007825002048000020000010802DE9F0472A
:1014C000814614461D46DDE90868002700203249A0
:1014D0000870324908600120314908600020314914
:1014E000C86231480068022808D1060202020023BF
:1014F00020462946FEF738FE04460D462B48066076
:1015000010202A494860402088600020C8604FF4BD
:10151000806008610846FFF7B9FB1020FEF7C4FEA3
:10152000074617B13846BDE8F0874FF0FF30204935
:10153000086008FB06F04860902088600220C860C0
:1015400000200861012048610846FFF721FB174889
:101550000460122015494860402088600020C8605F
:101560004FF4806008610846FFF790FB1220FEF7F9
:101570009BFE07460FB13846D5E701210802FFF769
:1015800057FB0120FFF7FEFA08FB06F14846FFF77C
:10159000A9FB3846C7E7000054000020580000208F
:1015A00050000020008001404800002078250020E5
:1015B0008C25002070B5044600250A4804600720E9
:1015C00008494860402088600020C8604FF480606F
:1015D00008610846FFF75AFB0720FEF765FE05463F
:1015E000284670BD7825002070B5044600250A48BD
:1015F000008800040949886040F24D40C8600D2011
:10160000FEF752FE05460DB1284670BD03484069FD
:1016100020602846F9E700004C00002000800140CF
:1016200010B5002400BFFFF755FB30B9074800682C
:1016300018B9074800780028F5D00548007810B19F
:101640000348007810BD2046FCE700005800002049
:101650005400002010B5002400BFFFF73BFB30B959
:101660000948006818B9094800780028F5D00748EB
:10167000007810B10548007810BD40F2FF50FFF728
:1016800075FA2046F8E700005800002054000020BA
:101690002DE9F843814615461E46DDE90878002409
:1016A00000200090484908704849086001204849D6
:1016B000086000204749C86247480068022808D1EE
:1016C00007020202002328463146FEF74DFD05467B
:1016D0000E4642480760102040494860402088601C
:1016E0000020C8604FF4806008610846FFF7CEFA1A
:1016F0001020FEF7D9FD044614B12046BDE8F8835A
:101700003748008800043549086037204860402089
:1017100088600020C8604FF4806008610846FFF7C9
:10172000B5FA3720FEF7C0FD04460CB12046E5E7C8
:101730002A48C0F800801720284948604020886067
:101740000020C8604FF4806008610846FFF79EFAE9
:101750001720FEF7A9FD04460CB12046CEE71F482E
:10176000056019201D494860402088600020C8603D
:101770004FF4806008610846FFF788FA1920FEF7E9
:1017800093FD04460CB12046B8E74FF0FF301549F1
:10179000086008FB07F04860902088600020C8605F
:1017A0000861012048610846FFF7F2F901210802AB
:1017B000FFF73EFA0120FFF7E5F908FB07F148467D
:1017C000FFF7C2FA204699E7540000205800002095
:1017D00050000020008001404800002078250020B3
:1017E0004C0000208C25002010B500F001F810BD41
:1017F0000CB50020019000903348006840F4803020
:101800003149086000BF3048006800F400300090A3
:101810000198401C0190009818B90198B0F5A06F8C
:10182000F1D12948006800F4003010B10120009087
:1018300001E0002000900098012843D1234800686F
:1018400040F01000214908600846006820F00300BD
:1018500008600846006840F0020008601A484068C6
:10186000194948600846406848600846406840F4A6
:10187000806048600846406820F47C104860084654
:10188000406840F4E81048600846006840F0807006
:10189000086000BF0C48006800F000700028F9D014
:1018A0000948406820F0030007494860084640683E
:1018B00040F00200486000BF0348406800F00C00A0
:1018C0000828F9D10CBD00000010024000200240A1
:1018D00010B51348006840F001001149086008463F
:1018E0004068104908400E494860084600680E49A3
:1018F00008400B4908600846006820F48020086012
:101900000846406820F4FE0048604FF41F008860DD
:10191000FFF76AFF4FF000600449086010BD000047
:10192000001002400000FFF8FFFFF6FE08ED00E0A7
:1019300010B502460020108A4FF2FF0318400B88B2
:101940004C8823438C882343CC882343184310823C
:1019500010BD21B1828942F40052828104E0828963
:101960004DF6FF731A4082817047000000B587B0C2
:1019700001210420FEF7E2FF01218803FEF7DEFFCC
:101980004FF40070ADF8180018208DF81B000320EC
:101990008DF81A0006A91E48FEF794FE4FF48060E9
:1019A000ADF8180004208DF81B0006A91848FEF7B2
:1019B00089FE184800F030F84FF4E1300290002022
:1019C000ADF80C00ADF80E00ADF81000ADF8140045
:1019D0000C20ADF8120002A90E4800F09DF800207E
:1019E000ADF80000ADF80200ADF80400ADF8060057
:1019F00069460848FFF79CFF012240F2255105483F
:101A000000F065F801210348FFF7A3FF07B000BD10
:101A1000000801400038014010B5044620488442C7
:101A200009D101218803FEF799FF00214FF480407E
:101A3000FEF794FF32E01B48844209D1012148049B
:101A4000FEF76CFF00214FF40030FEF767FF25E042
:101A50001548844209D101218804FEF75FFF002167
:101A60004FF48020FEF75AFF18E01048844209D155
:101A70000121C804FEF752FF00214FF40020FEF7B9
:101A80004DFF0BE00A48844208D101210805FEF70A
:101A900045FF00214FF48010FEF740FF10BD00000D
:101AA000003801400044004000480040004C004025
:101AB0000050004002460020B1F5007F00D100BF79
:101AC00013880B400BB1012000E000207047F0B5F7
:101AD0000346002400260025002040F66A17B9427C
:101AE00000D100BF1846C1F3421401F01F060127C0
:101AF00007FA06F5012C01D10C3004E0022C01D1CB
:101B0000103000E014301AB107682F43076002E07C
:101B10000768AF430760F0BD2DE9F04786B0054682
:101B20000E460024A24600BFA1460027B08900B19E
:101B300000BF2F462C8A4CF6FF700440F088044307
:101B40002C82AC894EF6F3100440B08831890843EA
:101B5000718908430443AC81AC8A4FF6FF400440CE
:101B6000B0890443AC8201A8FEF708FF1F488742F2
:101B700002D1DDF810A001E0DDF80CA0A88900F486
:101B8000004040B10AEBCA0000EB0A10316849007E
:101B9000B0FBF1F807E00AEBCA0000EB0A1031686D
:101BA0008900B0FBF1F86420B8FBF0F004012009D3
:101BB000642101FB1089A88900F4004040B1322063
:101BC00000EBC900B0FBF1F000F00700044308E0AF
:101BD000322000EB09106421B0FBF1F000F00F009F
:101BE00004432C8106B0BDE8F087000000380140B6
:101BF000C1F30802828070470FB4054B10B503A9EA
:101C0000044A029800F018F810BC5DF814FB0000BC
:101C1000FD3B00087C00002002E008C8121F08C13C
:101C2000002AFAD170477047002001E001C1121F5D
:101C3000002AFBD1704700002DE9FF4F8BB09A4678
:101C40000F460546002606E025280BD052460D9982
:101C500090476D1C761C28780028F5D10FB03046CF
:101C6000BDE8F08F0024A0460122604900E0044353
:101C700015F8013F203B02FA03F00842F7D128781B
:101C80002E2817D115F8010F44F004042A280ED08D
:101C90006FF02F022878A0F1300109290AD808EB4B
:101CA000880102EB410100EB01086D1CF2E757F8D7
:101CB000048B6D1C287869283ED006DC0028CDD026
:101CC00063280BD0642804D136E0732810D075281F
:101CD0004BD052460D999047761C85E017F8040BBF
:101CE0008DF8000000208DF80100E946012003E096
:101CF00057F8049B4FF0FF3061074FF0000401D408
:101D00000AE0641C44450DDA8442FADB19F8041039
:101D10000029F6D106E0641C8442FCDB19F80410AB
:101D20000029F8D1264404E019F8010B52460D9918
:101D30009047641EF8D257E001CF4FF00A0B0028FD
:101D400002DA40422D2102E0210504D52B218DF835
:101D50002410012103E0E10705D02021F7E70DF170
:101D6000200908910CE00021F9E701CF4FF00A0BA0
:101D7000F9E75946FEF73BFA01F1300209F8012D67
:101D80000028F6D1ADEB090000F1200B600701D46B
:101D90004FF00108D84502DDA8EB0B0000E0002061
:101DA0008046002406E009A85246005D0D99904740
:101DB000641C761C08988442F5DB04E0302052460F
:101DC0000D999047761CB8F10001A8F10108F5DCE7
:101DD00005E019F8010B52460D999047761CBBF1AE
:101DE0000001ABF1010BF4DC6D1C34E709280100A4
:101DF00070B504460D4600202071401EE062294661
:101E0000204602F0C1FA08B1032070BD94F82E12EA
:101E100094F82F0241EA00204AF65521884201D069
:101E20000220F2E794F86900010694F8680041EA9C
:101E3000004194F8670041EA002094F866100843D6
:101E400020F07F400D49884201D10020DDE794F861
:101E50008500010694F8840041EA004194F883006B
:101E600041EA002094F88210084320F07F400349A3
:101E7000884201D10020C8E70120C6E7464154004E
:101E8000024600E0521C107810B110788842F9D157
:101E9000107870470246891E5069801E884201D81A
:101EA000002070479378906A01FB0300F9E7000077
:101EB0002DE9F04780460C46A17EE07E41EA0020F5
:101EC00010B10020BDE8F087207800F03F00401EF0
:101ED00000EB800101EBC0064FF00109002524E072
:101EE0001A48405D205C1949495D2144497840EA1F
:101EF0000127B9F1000F11D0FF2E0BD2384601F0A7
:101F0000DBFB82463146761C38F8110001F0D4FB29
:101F1000824501D00020D5E7B94605E04FF6FF70B5
:101F2000874201D00020CDE76D1C0D2DD8D320783D
:101F300000F0400038B1B9F1000F04D038F81600B5
:101F400008B10020BEE70120BCE700002C470008D4
:101F50002DE9F04704468946B9F1000F06D1E7683C
:101F600017B16069B84215D8012713E049462046E9
:101F700001F0BCFE0646022E02D20120BDE8F08729
:101F8000701C08B93046F9E76069B04201D93046A3
:101F9000F4E74F463D4600BF6D1C6069A84204D877
:101FA0000225BD4201D90020E8E72946204601F07C
:101FB0009DFE064606B909E0701C08B1012E01D14C
:101FC0003046DBE7BD42E7D10020D7E700BF6FF026
:101FD00070422946204602F0F1F98046B8F1000F20
:101FE00008D1B9F1000F05D02A464946204602F033
:101FF000E5F98046B8F1000F0BD1E5602069401C7F
:1020000078B12069401E2061607940F00100607164
:1020100007E0B8F1010F02D14FF0FF3000E00120DE
:1020200005462846AAE700002DE9F34F83B0814614
:1020300004980068019002E00198401C019001980A
:1020400000782F28F8D0019800785C28F4D0D9F8CF
:102050001CA000252F4600BF38467F1C01990C5C50
:10206000202C03DB2F2C01D05C2C00D132E0FF2D83
:1020700003D3062005B0BDE8F08FE4B2812C13DB5A
:10208000E0B2FE2810DC38467F1C01990E5C06EB9E
:10209000042084B2402E01DB7E2E05DD802E01DB84
:1020A000FE2E01DD0620E5E70121204601F0C6FAFB
:1020B00004460CB90620DDE7802C06DA214671A023
:1020C000FFF7DEFE08B10620D4E728466D1C2AF88B
:1020D0001040C1E700BF0198C11904980160202C8D
:1020E00001DA042000E00020804608E0681E3AF88B
:1020F0001040202C02D02E2C00D002E06D1E002DAE
:10210000F4D100BF0DB90620B4E700202AF815006D
:102110000B222021D9F8180002F02CF9002700E04A
:102120007F1C3AF817002028FAD03AF817002E281A
:10213000F6D00FB148F0030800E06D1E25B1681E0F
:102140003AF810002E28F8D10020064602904FF0F1
:10215000080B00BF38467F1C3AF8104004B963E012
:10216000202C03D02E2C04D1AF4202D048F003081B
:10217000F0E70298584501D2AF4214D1BBF10B0FE2
:1021800002D148F003084FE0AF4201D048F0030805
:10219000AF4200D948E02F46082002904FF00B0BC9
:1021A000B006060ED6E7802C09DB204601F084FA43
:1021B0000021009001F042FA044648F00208FF2C8A
:1021C00011DDABF101000299884204D848F0030800
:1021D000CDF808B0BEE72212D9F818300298411C99
:1021E00002911A5419E024B1214629A0FFF748FEB4
:1021F00018B15F2448F003080FE0412C04DB5A2C8F
:1022000002DC46F0020608E0612C06DB7A2C04DCD6
:1022100046F00106A4F1200084B2D9F818300298E3
:10222000411C02911C5495E700BFD9F818000078B2
:10223000E52803D10520D9F818100870BBF1080F64
:1022400001D1B006060E06F00C000C2803D006F0F3
:102250000300032801D148F0020808F0020058B931
:1022600006F00300012801D148F0100806F00C0028
:10227000042801D148F00808D9F8180080F80B802C
:102280000020F7E6222A3A3C3E3F7C7F0000000017
:102290002B2C3B3D5B5D00002DE9F04104460E46D2
:1022A0000021204600F0CDF90546EDB9002700BF1A
:1022B0002169206802F068F8054605B113E06069FD
:1022C0000078E52802D06069007820B9781C0746BC
:1022D000B04201D107E000270121204600F07FF83D
:1022E0000546002DE4D000BF042D00D10725284667
:1022F000BDE8F0812DE9F04704460021204600F0BA
:10230000A0F9074617B13846BDE8F0874FF0FF093E
:10231000CA464FF6FF70208400BF2169206802F092
:1023200033F8074607B157E065692E780EB90427E0
:1023300052E0E87A00F03F08E52E05D008F00800EA
:1023400040B1B8F10F0F05D04FF0FF094FF6FF7005
:1023500020843AE0B8F10F0F1CD1E06978B306F0A1
:10236000400030B195F80DA026F04006B146E08857
:1023700020844E450AD1687B504507D12946E06943
:10238000FFF796FD10B1A9F1010000E0FF2000F079
:10239000FF091AE0B9F1000F05D1284602F010F943
:1023A000504500D118E0A069C07A00F0010038B9AA
:1023B0000B222846A16901F0BDFF08B90CE004E03A
:1023C0004FF0FF094FF6FF7020840021204600F0F7
:1023D00006F80746002FA0D000BF384694E72DE945
:1023E000F04104468846E088461CB0B208B1206936
:1023F00010B90420BDE8F08121684889C11700EBBD
:10240000D1614911B6FBF1F201FB1261002971D1D2
:102410002069401C2061E06828B920680089B0422A
:1024200068D80420E6E721684889C11700EBD1612C
:102430004911B6FBF1F122689278521E1140002931
:1024400058D1E168206801F051FC0546012D01D802
:102450000220CFE7681C08B90120CBE7206840695B
:10246000A84241D8B8F1000F01D10420C2E7E168C9
:102470002068FFF76DFD05460DB90720BAE7012D6D
:1024800001D10220B6E7681C08B90120B2E7206834
:1024900002F00AF908B10120ACE721684A8901F18C
:1024A0003000002101F066FF29462068FFF7F2FCAA
:1024B0002168C86200270EE00120216808712068A9
:1024C00002F0F2F808B1012094E72068C06A401CCD
:1024D0002168C8627F1C20688078B842ECD82068E8
:1024E000C06AC01B2168C862E56029462068FFF702
:1024F000D1FC2061E68021684889C11700EBD161D9
:102500004911B6FBF1F201FB12612268303202EB95
:102510004111616100206DE72DE9FE4F0446D4F8BA
:102520001880D4F81C900C224146684601F015FF33
:1025300000BF9DF80B0000F0010020B3002088F8D8
:102540000B00E06101260CE033464A4669464046EE
:1025500001F066FB2046FFF7CDFE054605B102E01F
:10256000761C642EF0D300BF642E02D10720BDE894
:10257000FE8F042D01D02846F9E79DF80B0088F85E
:102580000B00C4F81C909DF80B0000F0020060B135
:10259000002600E0761C39F816000028FAD106F172
:1025A00019000D21B0FBF1F700E001273946204664
:1025B000FFF772FE054645BB781E071E25D0E08852
:1025C000C11B204600F03DF80546F5B9A06901F0B1
:1025D000F7FF824600BF2169206801F0D5FE05465D
:1025E00005B111E0FAB253466169E06901F07EFA83
:1025F00001202168087100212046FFF7F0FE054602
:1026000015B9781E071EE6D100BFC5B9216920683B
:1026100001F0BAFE054695B920220021606901F05B
:10262000A9FE0B22D4E9050101F097FEA069C07A4A
:1026300000F01800616908730120216808712846BC
:1026400095E72DE9F04104460E46E680A568012D88
:1026500003D020684069A84202D80220BDE8F0817A
:102660002DB920680078032801D12068456A45B952
:1026700020680089B04201D80220EFE72068476A4D
:1026800024E021684889C11700EBD1614911226813
:10269000927801FB02F812E02946206801F026FB3F
:1026A0000546681C08B90120D8E7022D03D320682D
:1026B0004069A84201D80220D0E7A6EB08064645AB
:1026C000EAD229462068FFF7E5FB0746E5600FB927
:1026D0000220C3E721684889C11700EBD161491185
:1026E000B6FBF1F13944216121684889C11700EB3B
:1026F000D1614911B6FBF1F201FB1261226830325F
:1027000002EB411161610020A8E770B50446012584
:1027100014B1012C09D107E0FEF734FD10B925F002
:10272000010500E0012502E001E0012500BF00BF36
:10273000284670BD2DE9F04705460E4614464FF079
:10274000040915B1012D21D11FE0CEB1012E0BD00E
:10275000022E02D0032E14D103E04FF4007020802B
:102760000FE0012020600CE00C48D0F850C0624619
:102770000023D0E912713846FDF7F6FC206000E036
:1027800000BF00BF4FF0000903E002E04FF0040972
:1027900000BF00BF4846BDE8F087000008250020C4
:1027A0002DE9F04FADF5017D81460C4615461E46DC
:1027B0004FF0040B4FF0000AB9F1000F03D0B9F14C
:1027C000010F42D140E004F00300E8B1002711E01E
:1027D0002A466D1C012301A90020FFF7E1FF0746EF
:1027E00007B10BE04FF4007201A92046FDF7EDFCA4
:1027F00004F50074301EA6F10106E9D100BF384689
:102800000DF5017DBDE8F08F4FF40070A5FB007160
:102810003A460B46CDE900062046FEF74FFE8246BB
:10282000BAF1000F07D1FEF7FBFE824600BFFEF7AC
:102830009AFC0028FBD1BAF1000F02D04FF0040B34
:1028400001E04FF0000B03E002E04FF0040B00BF8B
:1028500000BF5846D4E70146012011B1012904D137
:1028600002E020F0010002E001E0012000BF00BF13
:1028700070472DE9F04FADF5017D81460C461646B7
:102880001D464FF0040B4FF0000A25B904200DF54A
:10289000017DBDE8F08FB9F1000F03D0B9F1010F50
:1028A0003FD13DE004F00300D0B1002711E04FF428
:1028B0000072214601A8FDF788FC3246761C0123F0
:1028C00001A90020FFF7D5FF074607B105E004F591
:1028D0000074281EA5F10105E9D100BF3846D6E7EE
:1028E0004FF40070A6FB00713A460B46CDE9000597
:1028F0002046FEF7CDFE8246BAF1000F07D1FEF763
:10290000A9FE824600BFFEF72EFC0028FBD1BAF1DB
:10291000000F02D04FF0040B01E04FF0000B03E07A
:1029200002E04FF0040B00BF00BF5846AFE770B5A0
:102930000546284600F023FD044634B9284601F038
:10294000DCFE04460CB900202860204670BD000063
:102950002DE9F74F90B091461198012803DD13201F
:1029600013B0BDE8F08F10A801F064FA0F900F9833
:10297000002801DA0B20F3E7FA490F9851F82050AC
:102980000DB90C20ECE7002028700F98C0B20C9015
:1029900000200B900C98FFF7B8FE0190019800F012
:1029A000010008B10320DBE7019800F0040008B142
:1029B0000A20D5E705F10A0202210C98FFF7BAFEBA
:1029C00038B96889B0F5805F03DC6889B0F5007FAD
:1029D00001DA0120C4E700BF04AA01210C98FFF727
:1029E000A9FE10B90498802801D20120B8E71198F7
:1029F00008B1002000E03F2082460498A0EB0A00C6
:102A00000490A9F1010000EA090008B14FF00009A3
:102A1000B9F1000F1AD16889C11700EBD1514912E1
:102A20004FF4FA6292FBF1F1049AB2FBF1F10A91D0
:102A30004FF0000B01E00BF1010BCB4830F81B10FD
:102A40000A988142F7D8C94830F81B90B9F5007F41
:102A500002D36889B9FBF0F9B9F1000F01D14FF049
:102A60000109B9F1800F01D94FF080090498B0FB3A
:102A7000F9F8012640F6F670804500D302264FF69D
:102A8000F670804500D30326032E0CD1082000EBFE
:102A9000880069890844401EB0FBF1F720200390AC
:102AA0000020029019E0012E05D108EB4800401CDF
:102AB0004008C01C02E04FEA4800001D0746688934
:102AC0003844401E6989B0FBF1F701200390688902
:102AD0004FF48041B1FBF0F002900398504407900E
:102AE000079838440690029906980844059005987E
:102AF0004844A0EB0A000499884201D90E202FE730
:102B000009AA03210C98FFF715FE28B9099818B1F6
:102B10000998B0F5004F01D901200990099905984D
:102B20000844401E491E8843099009990598081ACF
:102B30000990032E08D10999039808440390099934
:102B400007980844079001E009980744DDE903016C
:102B5000081AC11B0298081AB0FBF9F8022E03D11B
:102B600040F6F670804505D3032E05D14FF6F6707A
:102B7000804501D20E20F3E6032E02D10C200D90E9
:102B800010E0012E06D10498B0F5803F02D201205A
:102B90000D9007E00498B0F5803F01D2042000E0DA
:102BA00006200D9000BF119810B1F0200E9043E068
:102BB0006A89002105F1300001F0DCFB05F5F774AE
:102BC00001206070A0700020E0700D982071FE2040
:102BD0006071049850443F21B0FBF1F0FF21B0FB3D
:102BE000F1F009903F21099841EA9000A0710998FD
:102BF000E0713F20207200216172A172E17204989D
:102C000020730498010A61730498010CA17304985D
:102C1000010EE173552185F82E12AA2185F82F1295
:102C20000123002205F130010C98FFF722FE08B1C4
:102C3000012095E6F8200E9005F130046A89002104
:102C4000204601F097FB0B2249A1204601F085FBAD
:102C5000B5F80AB084F80BB04FEA1B21217384F851
:102C60000D900398A0730398010AE173012020746A
:102C7000032E01D1002001E04FF40070834684F858
:102C800011B04FEA1B21A1740498B0F5803F05D222
:102C90000498E0740498010A217510E0049884F8FF
:102CA00020000498C0F30721212001550498C0F3A7
:102CB0000741222001550498010E232001550E984A
:102CC00060753F20207600216176FF20A076E176B6
:102CD00084F81CA04FEA1A2161774FEA1A41A177C4
:102CE0004FEA1A61E17701F0A1F80990032E4BD168
:102CF000099884F843000998C0F30721442001553E
:102D00000998C0F30741452001550998010E462056
:102D1000015584F82470C7F3072125200155C7F316
:102D2000074126200155390E27200155022084F83D
:102D30002C0000212D2001552E2001552F2001555A
:102D4000012084F8300031200155062084F832003B
:102D500033200155802084F84000292084F8420067
:102D600013220BE0700000203A470008504700088B
:102D7000EBFE904D53444F53352E30008AA104F1A1
:102D8000470001F0EAFA1FE0099884F82700099843
:102D9000C0F30721282001550998C0F307412920D5
:102DA00001550998010E2A200155A775390AE175C8
:102DB000802084F82400292084F8260013227FA193
:102DC00004F12B0001F0C9FA552084F8FE01AA2174
:102DD00040F2FF1001550123524621460C98FFF79F
:102DE00048FD08B10120BBE5032E06D101230AF1FD
:102DF000060221460C98FFF73CFD079808904FF01B
:102E0000000B5FE06A890021204601F0B3FA0E98BA
:102E10000990032E14D0012E01D16D4801E06FF00E
:102E2000FF00099908430990099820700998000A41
:102E300060700998000CA0700998000EE07019E00D
:102E4000099860F0FF000990099820700998000A1D
:102E500060700998000CA0700998000EE070FF20C7
:102E60002071FF216171A171E17120726172A17203
:102E70000F21E1720898411C024601230891214666
:102E80000C98FFF7F6FC08B1012069E56A8900217A
:102E9000204601F06FFA012009900EE00898411CCD
:102EA00002460123089121460C98FFF7E2FC08B185
:102EB000012055E50998401C09900998B842EDD3C6
:102EC0000BF1010BBBF1000F9CD0032E01D1484642
:102ED00000E00298834600BF0898411C0246012387
:102EE000089121460C98FFF7C4FC08B1012037E592
:102EF000ABF10100B0F1000BEED1032E49D152200D
:102F0000207060706120A0704120E070722084F811
:102F1000E401722140F2E51001554121401C0155A8
:102F20006121401C0155A8F1010084F8E801C0F3BB
:102F3000072140F2E9100155A8F10100C0F3074153
:102F40004FF4F5700155A8F10100010E40F2EB10AD
:102F50000155022084F8EC01002140F2ED100155EA
:102F6000401C0155401C0155552084F8FE01AA2142
:102F700040F2FF10015501230AF1010221460C988D
:102F8000FFF777FC01230AF1070221460C98FFF7AF
:102F900070FC002211460C98FFF7CCFB08B1012011
:102FA000DEE40020DCE400004E4F204E414D452081
:102FB0002020204641543332202020004E4F204E06
:102FC000414D452020202046415420202020200033
:102FD00000FFFF00F7B582B016460398019001A8E4
:102FE00000F028FF0546002D02DA0B2005B0F0BDE9
:102FF0000E4850F825400CB100202070029810B106
:103000000020029908700949029841F825000298A9
:1030100008B1012E01D00020E8E7002203A902A890
:1030200000F078FB07463846E0E70000700000201B
:103030002DE9F743ADF50C7D0546164625B9092067
:103040000DF50F7DBDE8F0830020286006F01F0617
:1030500026F001028DA983A800F05CFB0746002F33
:1030600074D180A88990CDF828D283A88D9900F0DA
:103070007DFD0746889C0FB904B9062706F01C00A1
:1030800000285CD04FB1042F03D183A8FFF744FA86
:10309000074646F00806889C09E0E07A00F0110037
:1030A00008B1072703E006F0040000B10827002F4D
:1030B00055D106F00800002851D000F0B7FE804638
:1030C00084F80E804FEA1821E1734FEA1841217409
:1030D0004FEA1861617484F816804FEA1821E1758F
:1030E0004FEA184121764FEA186161760020E072BC
:1030F000207700216177A177E1772146839800F05E
:10310000BEFE81460021204601F052FA012083993B
:103110000871B9F1000F22D08398D0F82C8049466D
:10312000839801F00FFA0746CFB9A9F101008399FE
:10313000C8604146839801F027F907460FE077B948
:10314000E07A00F0100010B1042708E02DE006F04E
:10315000020020B1E07A00F0010000B1072747B972
:1031600006F0080008B146F020068398C06AE861BE
:103170002C62D7B9AE710020E8712146839800F027
:103180007EFE2861E07F0106A07F41EA0041607F6A
:1031900041EA0020217F0843E8600020A860A86180
:1031A000839828602868C088A880384648E72DE9B9
:1031B000FF4F85B0044615469A46DDF818B000204A
:1031C000CAF80000204601F098FA0490049818B15B
:1031D000049809B0BDE8F08FE07908B1E079F8E72C
:1031E000A07900F0010008B90720F2E7D4E9021045
:1031F000401A02900298854200D9029DBAE02168E7
:103200004989A068B0FBF1F201FB1200002877D1D8
:1032100021684989A068B0FBF1F021688978491ECE
:10322000084000F0FF09B9F1000F17D1A06810B9EC
:103230002069039004E06169206800F057FD039065
:103240000398022802D20220E071C2E70398401CD2
:1032500010B90120E071BCE70398606161692068E2
:10326000FEF718FE064616B90220E071B1E74E449B
:1032700020684089B5FBF0F8B8F1000F2DD009EBBC
:10328000080021688978884203D920688078A0EBFB
:10329000090821684878434632465946FFF780FAC4
:1032A00010B10120E07194E7A07900F0400078B1FE
:1032B000A069801B40450BD2A169891B23685B89EB
:1032C00001FB03B021684A8904F1240101F045F8AB
:1032D0002068408900FB08F742E0A069B04220D096
:1032E000A07900F0400080B121684878012304F102
:1032F0002401A269FFF7BDFA18B10120E07168E767
:1033000010E0A07920F04000A071216848780123E6
:10331000324604F12401FFF743FA10B10120E071B5
:1033200057E7A66121684989A068B0FBF1F201FB6B
:103330001200216849890F1AAF4200D92F4621682F
:103340004989A068B0FBF1F201FB120104F12400ED
:1033500008443A4601460190584600F0FEFF00BF7F
:10336000BB44A0683844A060DAF800003844CAF8CA
:103370000000ED1B002D7FF442AF002029E72DE96E
:10338000F0410446204601F0B8F90746002F4CD121
:10339000A07900F02000002847D0A07900F040007C
:1033A00078B121684878012304F12401A269FFF76C
:1033B00060FA10B10120BDE8F081A07920F0400052
:1033C000A071E169206800F0DFFF0746002F2CD1D3
:1033D000256AE87A40F02000E872207B2877A089EF
:1033E000010A6977E068010CA977E068010EE977C6
:1033F0002846216901F0DCF800F018FD0646AE759C
:10340000310AE975310C2976310E69760020A874ED
:103410000021E974A07920F02000A071012021682A
:103420000871206801F0DCF807463846C3E72DE94B
:10343000FF4F83B0044615469B4604980190002038
:10344000CBF80000204601F058F90290029818B11C
:10345000029807B0BDE8F08FE07908B1E079F8E7AD
:10346000A07900F0020008B90720F2E7A06828441C
:10347000A168884200D20025CFE021684989A06870
:10348000B0FBF1F201FB120000287ED121684989CE
:10349000A068B0FBF1F021688978491E084000F06F
:1034A000FF0ABAF1000F1ED1A06838B9276957B9D1
:1034B00000212068FEF74CFD074604E061692068A2
:1034C000FEF746FD074607B9AAE0012F02D1022008
:1034D000E071BEE7781C10B90120E071B9E76761BF
:1034E000206900B92761A07900F0400078B1216817
:1034F0004878012304F12401A269FFF7BAF910B159
:103500000120E071A5E7A07920F04000A071616979
:103510002068FEF7BFFC064616B90220E07198E766
:10352000564420684089B5FBF0F9B9F1000F31D05D
:103530000AEB090021688978884203D920688078DD
:10354000A0EB0A09216848784B4632460199FFF7FB
:1035500090F910B10120E0717BE7A069801B48451C
:1035600011D2A069831B2068B0F80AC0019803FB40
:103570000C012068428904F1240000F0EEFEA079DD
:1035800020F04000A071206800E017E0408900FBB7
:1035900009F835E0A069B0420FD0D4E902018842B1
:1035A0000BD2216848780123324604F12401FFF749
:1035B000F7F810B10120E0714BE7A6612168498955
:1035C000A068B0FBF1F201FB120021684989A1EB70
:1035D0000008A84500D9A84621684989A068B0FB21
:1035E000F1F201FB120104F124000844424600906C
:1035F000019900F0B2FEA07940F04000A07100BF38
:10360000019840440190A0684044A060DBF80000AD
:103610004044CBF80000A5EB0805002D7FF42DAF4A
:1036200000BFD4E90201884201D9A068E060A07916
:1036300040F02000A07100200BE700002DE9F041D0
:1036400002460F46802A01DA10462FE01FB1184BC0
:1036500045F2205602E0174B45F220560025102473
:1036600016E0A6EB050C0CEBDC7805EB68014FEAE5
:10367000410C33F81CC0944500D10BE04FEA410CDB
:1036800033F81CC0944501DA0D4600E00E46641E76
:10369000002CE6D100BF34B14FF0010C0CEB410C13
:1036A00033F81CC001E04FF0000C6046BDE8F0812B
:1036B000EA9B01086647000830B5802807DA6128D0
:1036C00023DB7A2821DCA0F12005A8B21DE00C2222
:1036D00000234FF4F77400BFE51A03EB55010B4DBF
:1036E00035F81150854200D10AE0084D35F81150E7
:1036F000854201DA0B4600E00C46551E2A1EEBD12E
:1037000000BF12B1024D35F8110030BD6EF0020855
:103710004AF402082DE9F74F8AB000210A980160A7
:103720000B9800F087FB09900998002803DA0B201A
:103730000DB0BDE8F08FE949099851F820400CB967
:103740000C20F5E70A980460207878B16078FFF7DC
:1037500082F8814609F0010040B90C9820B109F0C7
:10376000040008B10A20E3E70020E1E70020207010
:10377000099860706078FEF7C8FF814609F0010083
:1037800008B10320D4E70C9820B109F0040008B177
:103790000A20CDE7607804F10A020221FEF7CAFF91
:1037A00038B96089B0F5007F03DB6089B0F5805FD0
:1037B00001DD0120BCE7002739462046FEF718FB53
:1037C0000546012D01D09DBB32E000261AE004F52C
:1037D000F77000EB061898F8040070B198F80B0029
:1037E000010698F80A0041EA004198F8090041EA08
:1037F000002098F80810084300E0002002A941F8D2
:103800002600761C042EE2D3002606B1761E00BFE9
:1038100002A850F8267027B139462046FEF7E8FA8C
:1038200000E0022005461DB1701C06460428EFD3B7
:10383000032D01D101207BE70DB10D2078E73B205E
:10384000015D94F83C0041EA00206189884201D082
:103850000D206DE74620015D94F8470041EA002AFB
:10386000BAF1000F0ED194F85700010694F85600F3
:1038700041EA004194F8550041EA002094F85410C0
:1038800040EA010AC4F818A04020005DE070E0782A
:10389000012804D0E078022801D00D2048E7E07824
:1038A0000AFB00FA3D20005DA070A07818B1A07856
:1038B000411E084008B10D203AE74120015D94F80F
:1038C000420041EA002020816089C11700EBD161EC
:1038D0004911228992FBF1F301FB132109B10D205B
:1038E00026E74320015D94F8440041EA0020089057
:1038F000089870B994F85300010694F8520041EA10
:10390000004194F8510041EA002094F85010084317
:1039100008903E20015D94F83F0041EA00200190AC
:10392000019808B90D2003E76089C11700EBD16148
:103930004911228992FBF1F20199514411440791F6
:10394000DDE90710884201D20D20F1E6DDE907101C
:10395000401AA178B0FBF1FBBBF1000F01D10D20A3
:10396000E6E6012540F6F670834500D302254FF6C2
:10397000F670834500D303250BF102006061E76117
:1039800001983844206207983844A062032D16D16C
:10399000208908B10D20CBE694F85F00010694F869
:1039A0005E0041EA004194F85D0041EA002094F88D
:1039B0005C100843606260698000069014E0208912
:1039C00008B90D20B4E6206A50446062022D02D18D
:1039D0006069400007E0207D00F00100616901EBB3
:1039E000410100EB510006906089401E0699084491
:1039F0006189B0FBF1F0A169884201D90D2097E6F9
:103A00004FF0FF302061E06080206071032D5AD1BB
:103A100094F8601094F8610041EA0020012852D126
:103A2000791C204600F0B0FCE8BB0020607194F8DF
:103A30002E1294F82F0241EA00204AF655218842BE
:103A400041D13320005D01063220005D41EA004192
:103A50003120005D41EA002094F8301008432049ED
:103A6000884230D194F81702010694F8160241EA10
:103A7000004194F8150241EA002094F8141208431A
:103A8000184988421FD194F81B02010694F81A02C3
:103A900041EA004194F8190241EA002094F8181212
:103AA0000843206100E00EE094F81F02010694F83C
:103AB0001E0241EA004194F81D0241EA002094F8F8
:103AC0001C120843E060257007480088401C80B243
:103AD00005490880E08000202AE6000070000020F0
:103AE000525261417272416178000020F0B5044683
:103AF0001D464D730F27CF7200270F738F76BC467C
:103B000081F81BC0571E07EB870C0CEBC70600277C
:103B100038463B4600BF4FF6FF77B84203D03746E2
:103B2000761C34F81700DFF840C01CF803C001F819
:103B30000C000712DFF830C01CF803C08C448CF86E
:103B4000017008B94FF6FF705F1C3B460D2FE2D3A2
:103B50004FF6FF77B84202D034F816700FB942F032
:103B600040020A70F0BD00002C4700082DE9F34127
:103B70000446019800782F2803D0019800785C282B
:103B800002D10198401C01900020A06001980078AB
:103B9000202807D200212046FEF753FD05460020CD
:103BA000606128E000BF01A92046FEF73DFA054606
:103BB00005B11FE02046FEF79DFB0546A069C67AC9
:103BC0003DB1042D04D100BF06F0040000B9052565
:103BD00010E006F0040000B10CE06769F87A00F02C
:103BE000100008B9052505E03946206800F047F9BE
:103BF000A060D8E700BF2846BDE8FC8170B5044648
:103C00000D46E1B20548FDF7F3FF00BF80210348F0
:103C1000FDF750FF0028F9D0204670BD0038014064
:103C20002DE9FF4F83B0074691461E460B223846CA
:103C3000049900F092FB052E19D9B04612E039F82C
:103C400002BB00250CE0584668F35F0080464FEA4F
:103C50006B0B08F4803010B1234888EA00086D1C13
:103C6000102DF0D3B9F800000028E8D1464607250A
:103C700000BF06F00F0000F1300ABAF1390F03DD82
:103C80000AF1070000F0FF0A28466D1E01A901F89D
:103C900000A03609002EECD17E20485500240BE010
:103CA000385D812807DB385DFE2804DC681EA042F1
:103CB00000D106E0641C641CAC4202D2385D2028AE
:103CC000EED100BF00BF082D04D228466D1C01A90B
:103CD000095C00E020212046641C3954082CF2D3F2
:103CE00007B0BDE8F08F0000211001002DE9F05F62
:103CF00004460D46022D02D36069A84202D84FF057
:103D000001098FE04FF0FF392078012804D0022804
:103D10003CD003287ED157E02F4607EB5707608938
:103D2000B7FBF0F0216A00EB010A5146204600F093
:103D30002BFB00B175E038467F1C6189B0FBF1F2C6
:103D400001FB120104F1300010F801806089B7FB1B
:103D5000F0F0216A00EB010A5146204600F014FB06
:103D600000B15EE06089B7FBF0F100FB117104F176
:103D70003000405C48EA002805F0010010B14FEA2D
:103D8000181001E0C8F30B0081464AE0B4F80AA01D
:103D90000AEBDA704010B5FBF0F0216A00EB010B82
:103DA0005946204600F0F0FA00B13AE06800618917
:103DB000B0FBF1F201FB120104F130000E18307873
:103DC000717840EA01292CE0B4F80AA04FEAEA70C1
:103DD0000AEB90708010B5FBF0F0216A00EB010B4C
:103DE0005946204600F0D0FA00B11AE0A8006189D7
:103DF000B0FBF1F201FB120104F130000E18F07873
:103E00000006B17840EA0140717840EA012031783B
:103E1000084300E002E020F0704902E04FF00109A1
:103E200000BF00BF4846BDE8F09F00000048704753
:103E30000000214670B502464FF0FF301568E5B12D
:103E4000116800E0491C0D78202D02D30D783A2D21
:103E5000F8D10D783A2D0FD1146814F8015BA5F153
:103E600030030A2B07D28C4205D1022B03D218460D
:103E70004D1C2946156070BD002000BFFBE710B542
:103E800002468C7ECB7E44EA03201378032B05D1B7
:103E90000C7D4B7D44EA032340EA034010BD000043
:103EA000FCF79EFC40206E49086180006D49086067
:103EB0006D490860FDF75AFD6CA0FDF79DFE0122DB
:103EC00075A17648FFF786F87549087008460078AE
:103ED0000D282CD173A0FDF78FFE002211466EA095
:103EE000FEF736FD6E4908700846007888B978A05C
:103EF000FDF782FE012268A10020FFF76BF86849F8
:103F00000870012264A16548FFF764F864490870ED
:103F10001DE04020524948618000524908605249E2
:103F2000091F086072A0FDF767FE00BFFEE75C484E
:103F3000007848B15A48017873A0FDF75DFE7BA078
:103F4000FDF75AFE00BFFEE781A0FDF755FE8AA0EF
:103F5000FDF752FE0A2293A19848FFF769F85049ED
:103F6000087008460078002820D195A0FDF744FE8F
:103F7000A34B4022A3499148FFF759FA48490870DA
:103F80000846007848B99E4801689FA0FDF734FEB6
:103F90009C49A6A0FDF730FE04E041480178ABA0A3
:103FA000FDF72AFE8548FEF7C2FC0BE040202C49B5
:103FB000486180002B4908602B49091F0860A9A0AF
:103FC000FDF71AFEAEA0FDF717FE012275A17B4892
:103FD000FFF72EF83249087008460078002828D1EB
:103FE00040201F49086180001E49091D08601E49C4
:103FF000091F0860ACA0FDF7FFFD814B4FF4806204
:10400000AE496E48FFF7D3F8254908700846007896
:1040100048B97B480168AAA0FDF7EEFDA749B1A009
:10402000FDF7EAFD11E01E480178B6A0FDF7E4FDBA
:104030000BE040200A49486180000A4908600A49AB
:10404000091F0860B5A0FDF7D7FD5C48FEF76FFCBF
:10405000012211A10020FEF7BDFF00BFFEE7000016
:104060000020014010080140140C01400D0A2A2ACA
:104070002A2A2A2A20D5E2CAC7D2BBB8F65344BF9F
:10408000A820CEC4BCFECFB5CDB3CAB5D1E9202A95
:104090002A2A2A2A2A0D0A00303A0000800000202D
:1040A00000000020A1B75344BFA8BBB9C3BBD3D005
:1040B000CEC4BCFECFB5CDB3A3ACBCB4BDABBDF8D4
:1040C000D0D0B8F1CABDBBAF2E2E2E0D0A00000015
:1040D000A1B75344BFA8D2D1B3C9B9A6B8F1CABDDC
:1040E000BBAFCEC4BCFECFB5CDB3A1A30D0A0000BB
:1040F000A1B6A1B6B8F1CABDBBAFCAA7B0DCA1A337
:10410000A1B7A1B70D0A0000A3A1A3A15344BFA862
:10411000B9D2D4D8CEC4BCFECFB5CDB3CAA7B0DC1B
:10412000A1A3282564290D0A00000000A3A1A3A1D2
:10413000BFC9C4DCD4ADD2F2A3BA5344BFA8B3F50F
:10414000CABCBBAFB2BBB3C9B9A6A1A30D0A0000DC
:10415000A1B7CEC4BCFECFB5CDB3B9D2D4D8B3C904
:10416000B9A6A3ACBFC9D2D4BDF8D0D0B6C1D0B423
:10417000B2E2CAD40D0A00000D0A2A2A2A2A2A2AE3
:1041800020BCB4BDABBDF8D0D0CEC4BCFED0B4C84A
:10419000EBB2E2CAD42E2E2E202A2A2A2A2A2A0D4F
:1041A0000A000000303A4661744673B6C1D0B4B21A
:1041B000E2CAD4CEC4BCFE2E74787400B0100020C5
:1041C000A1B7B4F2BFAA2FB4B4BDA84661744673B8
:1041D000B6C1D0B4B2E2CAD4CEC4BCFE2E747874D8
:1041E000CEC4BCFEB3C9B9A6A3ACCFF2CEC4BCFE4C
:1041F000D0B4C8EBCAFDBEDDA1A30D0A00000000CB
:104200000400002008000020A1B7CEC4BCFED0B43A
:10421000C8EBB3C9B9A6A3ACD0B4C8EBD7D6BDDA46
:10422000CAFDBEDDA3BA25640A000000A1B7CFF223
:10423000CEC4BCFED0B4C8EBB5C4CAFDBEDDCEAAA8
:10424000A3BA0D0A25730D0A00000000A3A1A3A1C3
:10425000CEC4BCFED0B4C8EBCAA7B0DCA3BA282534
:1042600064290A00A3A1A3A1B4F2BFAA2FB4B4BDCC
:10427000A8CEC4BCFECAA7B0DCA1A30D0A000000F2
:104280002A2A2A2A2A2A20BCB4BDABBDF8D0D0CE17
:10429000C4BCFEB6C1C8A1B2E2CAD42E2E2E202ABA
:1042A0002A2A2A2A2A0D0A00A1B7B4F2BFAACEC42C
:1042B000BCFEB3C9B9A6A1A30D0A0000D4200020FA
:1042C000A1B7CEC4BCFEB6C1C8A1B3C9B9A62CB6AD
:1042D000C1B5BDD7D6BDDACAFDBEDDA3BA25640D12
:1042E0000A000000A1B7B6C1C8A1B5C3B5C4CEC409
:1042F000BCFECAFDBEDDCEAAA3BA0D0A2573200DF1
:104300000A000000A3A1A3A1CEC4BCFEB6C1C8A1EF
:10431000CAA7B0DCA3BA282564290A00A3A1A3A1D7
:10432000B4F2BFAACEC4BCFECAA7B0DCA1A30D0ADA
:1043300000000000F0B503461C460D46002000BFFB
:10434000161EA2F1010207D014F8017B15F801CB6B
:10435000A7EB0C06301EF3D0F0BD70B503460C463B
:1043600003E014F8015B03F8015B151EA2F10102E2
:10437000F7D170BD30B5034601E003F8011B141EF0
:10438000A2F10102F9D130BD70B504460D460026F8
:10439000E06AA84210D0204600F086F906465EB9D1
:1043A000607801232A4604F13001FEF7F9F910B1D3
:1043B0004FF0FF350126E562304670BD2DE9F05F14
:1043C00004460E461746022E02D36069B04202D858
:1043D0004FF00208B3E02078012804D0022852D020
:1043E000032872D172E0B14609EB59096089B9FB23
:1043F000F0F0216A00EB010A51462046FFF7C4FFA6
:104400008046B8F1000F00D098E0484609F1010954
:104410006189B0FBF1F201FB120104F130000D18CB
:1044200006F0010020B1F9B2287861F31F1000E016
:1044300038462870012020716089B9FBF0F0216AAC
:1044400000EB010A51462046FFF79EFF8046B8F177
:10445000000F00D072E06089B9FBF0F100FB119110
:1044600004F130000D1806F0010010B1C7F3071079
:1044700005E0287800F0F000C7F303210843287016
:10448000012020715AE0B4F80AA00AEBDA7040105B
:10449000B6FBF0F0216A00EB010B59462046FFF70E
:1044A00073FF8046B8F1000F00D047E070006189CB
:1044B000B0FBF1F201FB120104F130000D182F7076
:1044C000380A68700120207138E034E0B4F80AA09E
:1044D0004FEAEA700AEB90708010B6FBF0F0216AA8
:1044E00000EB010B59462046FFF74EFF8046B8F11E
:1044F000000F00D022E0B0006189B0FBF1F201FBB7
:10450000120104F130000D18E8780006A97840EA9D
:104510000140697840EA01202978084300F07040A2
:1045200007432F70380A6870380CA870380EE8708E
:104530000120207102E04FF0020800BF00BF40469A
:10454000BDE8F09F2DE9F04104460E46022E02D34D
:104550006069B04201D8022727E0002721E03146F8
:104560002046FFF7C3FB054605B91DE0012D01D12B
:10457000022719E0681C08B9012715E0002231461E
:104580002046FFF71BFF074607B10DE02069401CDE
:1045900030B12069401C2061607940F001006071F9
:1045A0002E466069B042DAD800BF3846BDE8F081D7
:1045B00081760B0AC3760A0C02750B0E43757047A1
:1045C00030B5014600200B2200BF431003EBC0149E
:1045D00011F8015B6319D8B2531E1A1EF5D130BD14
:1045E00070B50446204600F05FF80546002D59D10D
:1045F000207803284FD1607901284CD162890021AD
:1046000004F13000FFF7B6FE552184F82E12AA21DE
:1046100084F82F12522084F83000522131200155A5
:10462000612132200155412133200155722184F846
:10463000141284F81512412184F81612612184F8AD
:104640001712217C84F81812208A010A84F81912A2
:104650002069010C84F81A122069010E84F81B12DB
:10466000217B84F81C12A089010A84F81D12E068DD
:10467000010C84F81E12E068010E84F81F12E06934
:10468000401CE0626078012304F13001E26AFEF729
:10469000F0F800206071607800221146FEF74AF8B9
:1046A00000B10125284670BD2DE9F04104460027E0
:1046B0002079F8B1E56A607801232A4604F13001D7
:1046C000FEF7D7F808B1012714E000202071206A16
:1046D000281AA16988420DD2E67809E0A06905444C
:1046E000607801232A4604F13001FEF7C2F8761EF5
:1046F000022EF3D23846BDE8F08170B505462C464F
:1047000084B1206870B12068007858B12068C088F2
:10471000A188884206D121684878FEF79CF800F00D
:10472000010008B1092070BD0020FCE70103050766
:10473000090E10121416181C1E00000400020001BD
:10474000800040002000100008000400020000006B
:1047500000800040002000100008004000200010F1
:10476000000800040002A400E8A1A700ECA1A80032
:10477000A7A1B000E3A1B100C0A1B700A4A1D700D8
:10478000C1A1E000A4A8E100A2A8E800A8A8E9004F
:10479000A6A8EA00BAA8EC00ACA8ED00AAA8F2000E
:1047A000B0A8F300AEA8F700C2A1F900B4A8FA00BF
:1047B000B2A8FC00B9A80101A1A81301A5A81B017A
:1047C000A7A82B01A9A84401BDA84801BEA84D0176
:1047D000ADA86B01B1A8CE01A3A8D001ABA8D201AE
:1047E000AFA8D401B3A8D601B5A8D801B6A8DA01FC
:1047F000B7A8DC01B8A85102BBA86102C0A8C702D3
:10480000A6A1C902A5A1CA0240A8CB0241A8D9020B
:1048100042A89103A1A69203A2A69303A3A6940380
:10482000A4A69503A5A69603A6A69703A7A69803F4
:10483000A8A69903A9A69A03AAA69B03ABA69C03C4
:10484000ACA69D03ADA69E03AEA69F03AFA6A00394
:10485000B0A6A103B1A6A303B2A6A403B3A6A50361
:10486000B4A6A603B5A6A703B6A6A803B7A6A90330
:10487000B8A6B103C1A6B203C2A6B303C3A6B403CC
:10488000C4A6B503C5A6B603C6A6B703C7A6B80394
:10489000C8A6B903C9A6BA03CAA6BB03CBA6BC0364
:1048A000CCA6BD03CDA6BE03CEA6BF03CFA6C00334
:1048B000D0A6C103D1A6C303D2A6C403D3A6C50301
:1048C000D4A6C603D5A6C703D6A6C803D7A6C903D0
:1048D000D8A60104A7A71004A1A71104A2A7120437
:1048E000A3A71304A4A71404A5A71504A6A7160438
:1048F000A8A71704A9A71804AAA71904ABA71A0404
:10490000ACA71B04ADA71C04AEA71D04AFA71E04D3
:10491000B0A71F04B1A72004B2A72104B3A72204A3
:10492000B4A72304B5A72404B6A72504B7A7260473
:10493000B8A72704B9A72804BAA72904BBA72A0443
:10494000BCA72B04BDA72C04BEA72D04BFA72E0413
:10495000C0A72F04C1A73004D1A73104D2A73204C5
:10496000D3A73304D4A73404D5A73504D6A7360477
:10497000D8A73704D9A73804DAA73904DBA73A0443
:10498000DCA73B04DDA73C04DEA73D04DFA73E0413
:10499000E0A73F04E1A74004E2A74104E3A74204E3
:1049A000E4A74304E5A74404E6A74504E7A74604B3
:1049B000E8A74704E9A74804EAA74904EBA74A0483
:1049C000ECA74B04EDA74C04EEA74D04EFA74E0453
:1049D000F0A74F04F1A75104D7A710205CA913201A
:1049E00043A81420AAA1152044A81620ACA1182081
:1049F000AEA11920AFA11C20B0A11D20B1A125207E
:104A000045A82620ADA13020EBA13220E4A133201F
:104A1000E5A1352046A83B20F9A1AC208000032168
:104A2000E6A1052147A8092148A81621EDA12121C9
:104A300059A96021F1A26121F2A26221F3A26321AE
:104A4000F4A26421F5A26521F6A26621F7A26721EE
:104A5000F8A26821F9A26921FAA26A21FBA26B21BE
:104A6000FCA27021A1A27121A2A27221A3A2732192
:104A7000A4A27421A5A27521A6A27621A7A27721BE
:104A8000A8A27821A9A27921AAA29021FBA1912113
:104A9000FCA19221FAA19321FDA1962149A8972179
:104AA0004AA898214BA899214CA80822CAA10F22F4
:104AB000C7A11122C6A115224DA81A22CCA11D22E0
:104AC000D8A11E22DEA11F224EA82022CFA1232280
:104AD0004FA82522CEA12722C4A12822C5A1292280
:104AE000C9A12A22C8A12B22D2A12E22D3A13422CD
:104AF000E0A13522DFA13622C3A13722CBA13D227E
:104B0000D7A14822D6A14C22D5A1522250A860227A
:104B1000D9A16122D4A16422DCA16522DDA1662293
:104B200051A8672252A86E22DAA16F22DBA195223A
:104B300092A89922D1A1A522CDA1BF2253A81223C8
:104B4000D0A16024D9A26124DAA26224DBA263246A
:104B5000DCA26424DDA26524DEA26624DFA2672431
:104B6000E0A26824E1A26924E2A27424C5A275240B
:104B7000C6A27624C7A27724C8A27824C9A2792421
:104B8000CAA27A24CBA27B24CCA27C24CDA27D24F1
:104B9000CEA27E24CFA27F24D0A28024D1A28124C1
:104BA000D2A28224D3A28324D4A28424D5A2852491
:104BB000D6A28624D7A28724D8A28824B1A2892489
:104BC000B2A28A24B3A28B24B4A28C24B5A28D24D1
:104BD000B6A28E24B7A28F24B8A29024B9A29124A1
:104BE000BAA29224BBA29324BCA29424BDA2952471
:104BF000BEA29624BFA29724C0A29824C1A2992441
:104C0000C2A29A24C3A29B24C4A20025A4A9012560
:104C1000A5A90225A6A90325A7A90425A8A90525B4
:104C2000A9A90625AAA90725ABA90825ACA9092584
:104C3000ADA90A25AEA90B25AFA90C25B0A90D2554
:104C4000B1A90E25B2A90F25B3A91025B4A9112524
:104C5000B5A91225B6A91325B7A91425B8A91525F4
:104C6000B9A91625BAA91725BBA91825BCA91925C4
:104C7000BDA91A25BEA91B25BFA91C25C0A91D2594
:104C8000C1A91E25C2A91F25C3A92025C4A9212564
:104C9000C5A92225C6A92325C7A92425C8A9252534
:104CA000C9A92625CAA92725CBA92825CCA9292504
:104CB000CDA92A25CEA92B25CFA92C25D0A92D25D4
:104CC000D1A92E25D2A92F25D3A93025D4A93125A4
:104CD000D5A93225D6A93325D7A93425D8A9352574
:104CE000D9A93625DAA93725DBA93825DCA9392544
:104CF000DDA93A25DEA93B25DFA93C25E0A93D2514
:104D0000E1A93E25E2A93F25E3A94025E4A94125E3
:104D1000E5A94225E6A94325E7A94425E8A94525B3
:104D2000E9A94625EAA94725EBA94825ECA9492583
:104D3000EDA94A25EEA94B25EFA9502554A85125E8
:104D400055A8522556A8532557A8542558A8552587
:104D500059A856255AA857255BA858255CA8592557
:104D60005DA85A255EA85B255FA85C2560A85D2527
:104D700061A85E2562A85F2563A8602564A86125F7
:104D800065A8622566A8632567A8642568A86525C7
:104D900069A866256AA867256BA868256CA8692597
:104DA0006DA86A256EA86B256FA86C2570A86D2567
:104DB00071A86E2572A86F2573A8702574A8712537
:104DC00075A8722576A8732577A8812578A88225ED
:104DD00079A883257AA884257BA885257CA88625A3
:104DE0007DA887257EA8882580A8892581A88A2571
:104DF00082A88B2583A88C2584A88D2585A88E253F
:104E000086A88F2587A8932588A8942589A8952505
:104E10008AA8A025F6A1A125F5A1B225F8A1B32560
:104E2000F7A1BC258BA8BD258CA8C625F4A1C72554
:104E3000F3A1CB25F0A1CE25F2A1CF25F1A1E2254A
:104E40008DA8E3258EA8E4258FA8E52590A8052642
:104E5000EFA10626EEA1092691A84026E2A142264E
:104E6000E1A10030A1A10130A2A10230A3A1033031
:104E7000A8A10530A9A1063065A9073096A9083078
:104E8000B4A10930B5A10A30B6A10B30B7A10C30DE
:104E9000B8A10D30B9A10E30BAA10F30BBA11030AE
:104EA000BEA11130BFA1123093A81330FEA114305F
:104EB000B2A11530B3A11630BCA11730BDA11D3071
:104EC00094A81E3095A8213040A9223041A9233052
:104ED00042A9243043A9253044A9263045A92730CA
:104EE00046A9283047A9293048A94130A1A4423019
:104EF000A2A44330A3A44430A4A44530A5A44630C2
:104F0000A6A44730A7A44830A8A44930A9A44A3091
:104F1000AAA44B30ABA44C30ACA44D30ADA44E3061
:104F2000AEA44F30AFA45030B0A45130B1A4523031
:104F3000B2A45330B3A45430B4A45530B5A4563001
:104F4000B6A45730B7A45830B8A45930B9A45A30D1
:104F5000BAA45B30BBA45C30BCA45D30BDA45E30A1
:104F6000BEA45F30BFA46030C0A46130C1A4623071
:104F7000C2A46330C3A46430C4A46530C5A4663041
:104F8000C6A46730C7A46830C8A46930C9A46A3011
:104F9000CAA46B30CBA46C30CCA46D30CDA46E30E1
:104FA000CEA46F30CFA47030D0A47130D1A47230B1
:104FB000D2A47330D3A47430D4A47530D5A4763081
:104FC000D6A47730D7A47830D8A47930D9A47A3051
:104FD000DAA47B30DBA47C30DCA47D30DDA47E3021
:104FE000DEA47F30DFA48030E0A48130E1A48230F1
:104FF000E2A48330E3A48430E4A48530E5A48630C1
:10500000E6A48730E7A48830E8A48930E9A48A3090
:10501000EAA48B30EBA48C30ECA48D30EDA48E3060
:10502000EEA48F30EFA49030F0A49130F1A4923030
:10503000F2A49330F3A49B3061A99C3062A99D3007
:1050400066A99E3067A9A130A1A5A230A2A5A33070
:10505000A3A5A430A4A5A530A5A5A630A6A5A730D4
:10506000A7A5A830A8A5A930A9A5AA30AAA5AB30A4
:10507000ABA5AC30ACA5AD30ADA5AE30AEA5AF3074
:10508000AFA5B030B0A5B130B1A5B230B2A5B33044
:10509000B3A5B430B4A5B530B5A5B630B6A5B73014
:1050A000B7A5B830B8A5B930B9A5BA30BAA5BB30E4
:1050B000BBA5BC30BCA5BD30BDA5BE30BEA5BF30B4
:1050C000BFA5C030C0A5C130C1A5C230C2A5C33084
:1050D000C3A5C430C4A5C530C5A5C630C6A5C73054
:1050E000C7A5C830C8A5C930C9A5CA30CAA5CB3024
:1050F000CBA5CC30CCA5CD30CDA5CE30CEA5CF30F4
:10510000CFA5D030D0A5D130D1A5D230D2A5D330C3
:10511000D3A5D430D4A5D530D5A5D630D6A5D73093
:10512000D7A5D830D8A5D930D9A5DA30DAA5DB3063
:10513000DBA5DC30DCA5DD30DDA5DE30DEA5DF3033
:10514000DFA5E030E0A5E130E1A5E230E2A5E33003
:10515000E3A5E430E4A5E530E5A5E630E6A5E730D3
:10516000E7A5E830E8A5E930E9A5EA30EAA5EB30A3
:10517000EBA5EC30ECA5ED30EDA5EE30EEA5EF3073
:10518000EFA5F030F0A5F130F1A5F230F2A5F33043
:10519000F3A5F430F4A5F530F5A5F630F6A5FC300E
:1051A00060A9FD3063A9FE3064A90531C5A80631A8
:1051B000C6A80731C7A80831C8A80931C9A80A314B
:1051C000CAA80B31CBA80C31CCA80D31CDA80E311B
:1051D000CEA80F31CFA81031D0A81131D1A81231EB
:1051E000D2A81331D3A81431D4A81531D5A81631BB
:1051F000D6A81731D7A81831D8A81931D9A81A318B
:10520000DAA81B31DBA81C31DCA81D31DDA81E315A
:10521000DEA81F31DFA82031E0A82131E1A822312A
:10522000E2A82331E3A82431E4A82531E5A82631FA
:10523000E6A82731E7A82831E8A82931E9A82032D3
:10524000E5A22132E6A22232E7A22332E8A22432EA
:10525000E9A22532EAA22632EBA22732ECA22832BA
:10526000EDA22932EEA231325AA9A33249A98E33D6
:105270004AA98F334BA99C334CA99D334DA99E332A
:105280004EA9A1334FA9C43350A9CE3351A9D1336C
:1052900052A9D23353A9D53354A9004EBBD2014EE3
:1052A000A1B6024E4081034EDFC6044E4181054E39
:1052B0004281064E4381074EF2CD084EC9D5094EB4
:1052C000FDC80A4ECFC90B4EC2CF0C4EA2D80D4E10
:1052D000BBB20E4EEBD30F4E4481104EA4D8114EEC
:1052E000F3B3124E4581134EA8D7144ED2C7154EB4
:1052F000A7D8164EC0CA174E4681184EF0C7194E91
:10530000FBB11A4EB5D21B4ED4B41C4EABB61D4EDB
:10531000BFCB1E4EA9D81F4E4781204E4881214E3B
:105320004981224EAAB6234E4A81244EBDC1254E44
:10533000CFD1264E4B81274EA5C9284EADD8294E38
:105340004C812A4EF6B82B4EBED12C4EDCE32D4EAE
:10535000D0D62E4E4D812F4E4E81304EE1B7314E7C
:105360004F81324EAEB4334E5081344ED9C1354E9A
:105370005181364EBCD8374E5281384EE8CD394E29
:10538000A4B53A4EAACE3B4EF7D63C4E53813D4E85
:10539000F6C03E4ED9BE3F4EAFD8404E5481414E2E
:1053A0005581424E5681434ECBC4444E5781454EA3
:1053B000C3BE464E5881474EB1D8484EB4C3494E3D
:1053C000E5D24A4E59814B4EAED64C4EDACE4D4EBA
:1053D000A7D54E4EF5BA4F4EA6B7504ED6C0514E39
:1053E0005A81524EB9C6534ED2C5544EC7C7554EB8
:1053F0005B81564ED4B9574E5C81584ECBB3594E53
:10540000D2D25A4E5D815B4E5E815C4EBFD85D4EFE
:10541000C5BE5E4EF2C65F4EB2D2604EB0CF614E98
:10542000E7CF624E5F81634E6081644E6181654E5D
:105430006281664EE9CA674E6381684E6481694E37
:10544000C0D86A4E65816B4E66816C4E67816D4E29
:1054500068816E4E69816F4E6A81704EF2C2714EE4
:10546000D2C2724E6B81734EE9C8744E6C81754E18
:105470006D81764E6E81774E6F81784E7081794E58
:1054800071817A4E72817B4E73817C4E74817D4E28
:1054900075817E4EACC77F4E7681804E7781814E7E
:1054A0007881824E7981834E7A81844E7B81854ECC
:1054B0007C81864ECBC1874E7D81884EE8D3894E54
:1054C000F9D58A4E7E818B4EC2CA8C4EFEB68D4E69
:1054D000A1D88E4EDAD38F4EF7BF904E8081914E79
:1054E000C6D4924EA5BB934EC1D8944EE5CE954EF0
:1054F000AEBE964E8181974E8281984EA8D8994E25
:1055000083819A4EC7D19B4EA9D09C4E84819D4EDB
:1055100085819E4E86819F4EBDD8A04EEFD9A14E6B
:10552000F6CDA24EBABFA34E8781A44EBBBDA54EF9
:10553000A5BAA64EE0D2A74EFAB2A84EE0BAA94E3E
:10554000B6C4AA4E8881AB4EEDCFAC4EA9BEAD4ECF
:10555000A4CDAE4EC1C1AF4E8981B04E8A81B14E4D
:105560008B81B24ED7C7B34EF1D9B44E8C81B54EB4
:10557000F4D9B64E8D81B74E8E81B84E8F81B94E1B
:105580009081BA4ECBC8BB4EE9D8BC4E9181BD4E7E
:105590009281BE4E9381BF4EDAD2C04EB2CAC14E86
:1055A000CAC8C24EECD8C34EEAD8C44EC6D8C54EFF
:1055B000F6BDC64ECDC6C74EF0B3C84E9481C94E97
:1055C000EBD8CA4EF1BDCB4EE9BDCC4E9581CD4E48
:1055D000D4C8CE4ED3B4CF4E9681D04E9781D14E03
:1055E000D8C2D24E9881D34ED6B2D44ED0D7D54E53
:1055F000CBCAD64EFBCBD74ECCD5D84EB6B8D94EAB
:10560000C9CFDA4E9981DB4E9A81DC4E9B81DD4E0B
:10561000DAD9DE4EF0D8DF4EAAC7E04E9C81E14ECB
:10562000EED8E24E9D81E34EFAB4E44EEEC1E54E73
:10563000D4D2E64E9E81E74E9F81E84EEDD8E94EEA
:10564000A081EA4EC7D2EB4EEFD8EC4EC7C3ED4E69
:10565000A181EE4EA281EF4EA381F04EF6D1F14E24
:10566000A481F24ED9D6F34EF2D8F44EA581F54E70
:10567000F5D8F64EFEBCF74EDBBCF84EA681F94ECF
:10568000A781FA4EA881FB4ECEC8FC4EA981FD4EE3
:10569000DDB7FE4EAA81FF4EC2B7004FAB81014F6E
:1056A000F3C6024FAC81034FAD81044FAE81054F6D
:1056B000AF81064FB081074FB181084FB281094FCA
:1056C000F8D80A4FC1D20B4FB3810C4FB4810D4FA4
:1056D000E9CE0E4FBFBC0F4FFCB7104FA5B7114F0F
:1056E000DDD0124FB581134FB681144FB781154FDE
:1056F000B881164FB981174FDAD6184FC5D3194F55
:10570000EFBB1A4FE1BB1B4FF1D81C4FBA811D4FA5
:10571000BB811E4FA1C91F4FB0CE204FABB4214F4C
:10572000BC81224FF3D8234FBD81244FCBC9254FD5
:10573000F6D8264FD7C2274FF7D8284FBE81294F1A
:10574000BF812A4FB1CE2B4FF9D82C4FC0812D4F9E
:10575000C1812E4FC2812F4FAEB2304FC0B9314FF1
:10576000C381324FA3D9334FC481344FE9B0354F91
:10577000C581364FE6C1374FC681384FECC9394F26
:10578000C7813A4FC5CB3B4FC8813C4FC6CB3D4F3D
:10579000A4D93E4FC9813F4FCA81404FCB81414F71
:1057A000CC81424FCD81434FE8B5444FCE81454F28
:1057B000CF81464FABB5474FD081484FD181494F3C
:1057C000D2814A4FD3814B4FD4814C4FD5814D4F1D
:1057D000BBCE4E4FCDB54F4FA1D7504FF4D7514F01
:1057E000D3D3524FD681534FE5CC544FD781554F29
:1057F000CEBA564FD881574FA2D9584FDCD9594FFE
:10580000E0D35A4FFDD85B4FF0B75C4FF7D75D4FF1
:10581000FED85E4FFAD85F4FA1D9604FE3C4614F05
:10582000D981624FDA81634FB6D3644FF4D8654FA4
:10583000DDD9664FDB81674FFBD8684FDC81694F4C
:10584000E5C56A4FDD816B4FDE816C4FD0C06D4F77
:10585000DF816E4FE0816F4FF0D1704FDBB0714F41
:10586000E181724FE281734FD1BC744FA6D9754F5D
:10587000E381764FA5D9774FE481784FE581794F61
:10588000E6817A4FE7817B4FACD97C4FAED97D4F13
:10589000E8817E4FABD97F4FB9CA804FE981814FF4
:1058A000EA81824FEB81834FA9D9844FB6D6854FC9
:1058B000EC81864FED81874FEE81884FDEB3894FB3
:1058C000A8D98A4FEF818B4FFDC08C4FF0818D4F4F
:1058D000CCCA8E4FF1818F4FAAD9904FF281914F50
:1058E000A7D9924FF381934FF481944FB0D9954F3C
:1058F000F581964FF681974FB1B6984FF781994F42
:10590000F8819A4FF9819B4FA9B99C4FFA819D4F1D
:10591000C0D29E4FFB819F4FFC81A04FC0CFA14FB3
:10592000FD81A24FFE81A34FC2C2A44F4082A54F6A
:10593000C4BDA64FECD5A74FE0B2A84FC8C7A94F2A
:10594000EBBFAA4FADD9AB4F4182AC4FAFD9AD4FF2
:105950004282AE4FEACEAF4FEEBAB04F4382B14F64
:105960004482B24F4582B34F4682B44F4782B54F0F
:10597000D6C7B64F4882B74F4982B84F4A82B94F0F
:105980004B82BA4F4C82BB4F4D82BC4F4E82BD4FB3
:105990004F82BE4F5082BF4FE3B1C04F5182C14FC3
:1059A0005282C24F5382C34FD9B4C44FEDB6C54FD4
:1059B000B4D9C64F5482C74F5582C84F5682C94F7B
:1059C0005782CA4FA1BFCB4F5882CC4F5982CD4F7F
:1059D0005A82CE4FDED9CF4FCEC7D04FFEC0D14F67
:1059E000B8D9D24F5B82D34F5C82D44F5D82D54F02
:1059F0005E82D64F5F82D74FD7CBD84FFDB7D94FF6
:105A00006082DA4FB5D9DB4F6182DC4FB7D9DD4F09
:105A1000A3B1DE4FE1D3DF4FB9D9E04F6282E14F4E
:105A2000C5D0E24F6382E34FB6D9E44F6482E54FBD
:105A30006582E64FB1D9E74F6682E84FB2D9E94FA8
:105A4000A9C1EA4FB3D9EB4F6782EC4F6882ED4FA3
:105A5000F3BCEE4FDED0EF4FA9B8F04F6982F14FA3
:105A6000E3BEF24F6A82F34FBDD9F44F6B82F54F1C
:105A70006C82F64F6D82F74F6E82F84FBAD9F94FAC
:105A80006F82FA4FB3B0FB4F7082FC4F7182FD4FB3
:105A90007282FE4FC2D9FF4F738200507482015050
:105AA00075820250768203507782045078820550C6
:105AB000798206507A8207507B8208507C82095096
:105AC0007D820A507E820B5080820C50C4D90D50CA
:105AD000B6B10E5081820F50BFD910508282115042
